{
  "contractName": "GOGAuction",
  "abi": [
    {
      "anonymous": false,
      "inputs": [
        {
          "indexed": false,
          "internalType": "string",
          "name": "auction",
          "type": "string"
        }
      ],
      "name": "AuctionCancel",
      "type": "event"
    },
    {
      "anonymous": false,
      "inputs": [
        {
          "indexed": false,
          "internalType": "address",
          "name": "winner",
          "type": "address"
        },
        {
          "indexed": false,
          "internalType": "uint256",
          "name": "amount",
          "type": "uint256"
        }
      ],
      "name": "AuctionEnded",
      "type": "event"
    },
    {
      "anonymous": false,
      "inputs": [
        {
          "indexed": false,
          "internalType": "string",
          "name": "auctionId",
          "type": "string"
        },
        {
          "indexed": false,
          "internalType": "bool",
          "name": "paused",
          "type": "bool"
        }
      ],
      "name": "AuctionToogled",
      "type": "event"
    },
    {
      "anonymous": false,
      "inputs": [
        {
          "indexed": false,
          "internalType": "address",
          "name": "buyer",
          "type": "address"
        },
        {
          "indexed": false,
          "internalType": "uint256",
          "name": "amount",
          "type": "uint256"
        }
      ],
      "name": "BuyNow",
      "type": "event"
    },
    {
      "anonymous": false,
      "inputs": [
        {
          "indexed": false,
          "internalType": "bool",
          "name": "paused",
          "type": "bool"
        }
      ],
      "name": "ContractIsPaused",
      "type": "event"
    },
    {
      "anonymous": false,
      "inputs": [
        {
          "indexed": false,
          "internalType": "bool",
          "name": "paused",
          "type": "bool"
        }
      ],
      "name": "ContractIsResumed",
      "type": "event"
    },
    {
      "anonymous": false,
      "inputs": [
        {
          "indexed": false,
          "internalType": "uint256",
          "name": "time",
          "type": "uint256"
        },
        {
          "indexed": false,
          "internalType": "uint256",
          "name": "auctionTime",
          "type": "uint256"
        }
      ],
      "name": "DidNotFinishYet",
      "type": "event"
    },
    {
      "anonymous": false,
      "inputs": [
        {
          "indexed": false,
          "internalType": "string",
          "name": "auction",
          "type": "string"
        },
        {
          "indexed": false,
          "internalType": "address",
          "name": "bidder",
          "type": "address"
        },
        {
          "indexed": false,
          "internalType": "uint256",
          "name": "amount",
          "type": "uint256"
        }
      ],
      "name": "HighestBidIncreased",
      "type": "event"
    },
    {
      "anonymous": false,
      "inputs": [
        {
          "indexed": false,
          "internalType": "string",
          "name": "auctionId",
          "type": "string"
        },
        {
          "indexed": false,
          "internalType": "uint256",
          "name": "artwork",
          "type": "uint256"
        }
      ],
      "name": "NewAuctionCreated",
      "type": "event"
    },
    {
      "anonymous": false,
      "inputs": [
        {
          "indexed": false,
          "internalType": "address",
          "name": "owner",
          "type": "address"
        },
        {
          "indexed": false,
          "internalType": "address",
          "name": "sender",
          "type": "address"
        }
      ],
      "name": "NotTheContractOwner",
      "type": "event"
    },
    {
      "anonymous": false,
      "inputs": [
        {
          "indexed": true,
          "internalType": "address",
          "name": "previousOwner",
          "type": "address"
        },
        {
          "indexed": true,
          "internalType": "address",
          "name": "newOwner",
          "type": "address"
        }
      ],
      "name": "OwnershipTransferred",
      "type": "event"
    },
    {
      "anonymous": false,
      "inputs": [
        {
          "indexed": false,
          "internalType": "address",
          "name": "account",
          "type": "address"
        }
      ],
      "name": "Paused",
      "type": "event"
    },
    {
      "anonymous": false,
      "inputs": [
        {
          "indexed": false,
          "internalType": "address",
          "name": "account",
          "type": "address"
        }
      ],
      "name": "Unpaused",
      "type": "event"
    },
    {
      "inputs": [
        {
          "internalType": "address",
          "name": "operator",
          "type": "address"
        }
      ],
      "name": "addOperator",
      "outputs": [],
      "stateMutability": "nonpayable",
      "type": "function"
    },
    {
      "inputs": [],
      "name": "gogWallet",
      "outputs": [
        {
          "internalType": "address payable",
          "name": "",
          "type": "address"
        }
      ],
      "stateMutability": "view",
      "type": "function",
      "constant": true
    },
    {
      "inputs": [],
      "name": "owner",
      "outputs": [
        {
          "internalType": "address",
          "name": "",
          "type": "address"
        }
      ],
      "stateMutability": "view",
      "type": "function",
      "constant": true
    },
    {
      "inputs": [],
      "name": "paused",
      "outputs": [
        {
          "internalType": "bool",
          "name": "",
          "type": "bool"
        }
      ],
      "stateMutability": "view",
      "type": "function",
      "constant": true
    },
    {
      "inputs": [
        {
          "internalType": "address",
          "name": "operator",
          "type": "address"
        }
      ],
      "name": "removeOperator",
      "outputs": [],
      "stateMutability": "nonpayable",
      "type": "function"
    },
    {
      "inputs": [],
      "name": "renounceOwnership",
      "outputs": [],
      "stateMutability": "nonpayable",
      "type": "function"
    },
    {
      "inputs": [
        {
          "internalType": "address",
          "name": "newOwner",
          "type": "address"
        }
      ],
      "name": "transferOwnership",
      "outputs": [],
      "stateMutability": "nonpayable",
      "type": "function"
    },
    {
      "inputs": [
        {
          "internalType": "address",
          "name": "_wallet",
          "type": "address"
        }
      ],
      "name": "initialize",
      "outputs": [],
      "stateMutability": "nonpayable",
      "type": "function"
    },
    {
      "inputs": [],
      "name": "pause",
      "outputs": [],
      "stateMutability": "nonpayable",
      "type": "function"
    },
    {
      "inputs": [],
      "name": "unpause",
      "outputs": [],
      "stateMutability": "nonpayable",
      "type": "function"
    },
    {
      "inputs": [
        {
          "internalType": "string",
          "name": "_id",
          "type": "string"
        },
        {
          "internalType": "uint256",
          "name": "_biddingTime",
          "type": "uint256"
        },
        {
          "internalType": "uint256",
          "name": "_artwork",
          "type": "uint256"
        },
        {
          "internalType": "uint256",
          "name": "_minimumPrice",
          "type": "uint256"
        },
        {
          "internalType": "address",
          "name": "_erc721ContractAddress",
          "type": "address"
        },
        {
          "internalType": "address",
          "name": "_erc20ContractAddress",
          "type": "address"
        }
      ],
      "name": "createAuction",
      "outputs": [],
      "stateMutability": "nonpayable",
      "type": "function"
    },
    {
      "inputs": [
        {
          "internalType": "string",
          "name": "_auction",
          "type": "string"
        },
        {
          "internalType": "uint256",
          "name": "_amount",
          "type": "uint256"
        }
      ],
      "name": "bid",
      "outputs": [],
      "stateMutability": "nonpayable",
      "type": "function"
    },
    {
      "inputs": [
        {
          "internalType": "string",
          "name": "_auction",
          "type": "string"
        }
      ],
      "name": "withdraw",
      "outputs": [
        {
          "internalType": "bool",
          "name": "",
          "type": "bool"
        }
      ],
      "stateMutability": "nonpayable",
      "type": "function"
    },
    {
      "inputs": [
        {
          "internalType": "string",
          "name": "_auction",
          "type": "string"
        }
      ],
      "name": "auctionCancel",
      "outputs": [],
      "stateMutability": "nonpayable",
      "type": "function"
    },
    {
      "inputs": [
        {
          "internalType": "string",
          "name": "_auction",
          "type": "string"
        }
      ],
      "name": "auctionEnd",
      "outputs": [],
      "stateMutability": "nonpayable",
      "type": "function"
    },
    {
      "inputs": [
        {
          "internalType": "string",
          "name": "_auction",
          "type": "string"
        }
      ],
      "name": "toggleAuction",
      "outputs": [],
      "stateMutability": "nonpayable",
      "type": "function"
    },
    {
      "inputs": [
        {
          "internalType": "string",
          "name": "_auction",
          "type": "string"
        }
      ],
      "name": "getAuctionInfo",
      "outputs": [
        {
          "internalType": "uint256",
          "name": "end",
          "type": "uint256"
        },
        {
          "internalType": "address",
          "name": "beneficiary",
          "type": "address"
        },
        {
          "internalType": "uint256",
          "name": "maxBid",
          "type": "uint256"
        },
        {
          "internalType": "address",
          "name": "maxBidder",
          "type": "address"
        }
      ],
      "stateMutability": "view",
      "type": "function",
      "constant": true
    },
    {
      "inputs": [],
      "name": "canOperate",
      "outputs": [
        {
          "internalType": "bool",
          "name": "",
          "type": "bool"
        }
      ],
      "stateMutability": "view",
      "type": "function",
      "constant": true
    }
  ],
  "bytecode": "0x608060405234801561001057600080fd5b506124b9806100206000396000f3fe608060405234801561001057600080fd5b50600436106101155760003560e01c80638456cb59116100a2578063ac8a584a11610071578063ac8a584a146101f4578063c4d66de814610207578063ebd9a3091461021a578063f2fde38b14610222578063f5ea3a9a1461023557610115565b80638456cb59146101b15780638da5cb5b146101b95780639870d7fe146101ce578063a388ddde146101e157610115565b80635c975abb116100e95780635c975abb146101735780635e464d511461017b5780635f4833131461018e578063715018a6146101a157806375ff724c146101a957610115565b8062e6fc9d1461011a57806331fb67c21461012f5780633f4ba83a146101585780635285213114610160575b600080fd5b61012d610128366004611da7565b610258565b005b61014261013d366004611da7565b61044c565b60405161014f9190611f6e565b60405180910390f35b61012d610620565b61012d61016e366004611da7565b6106a7565b610142610b17565b61012d610189366004611da7565b610b20565b61012d61019c366004611de2565b610d7a565b61012d61129c565b610142611325565b61012d611355565b6101c16113d2565b60405161014f9190611f03565b61012d6101dc366004611d48565b6113e1565b61012d6101ef366004611e25565b611444565b61012d610202366004611d48565b61170f565b61012d610215366004611d48565b61176f565b6101c161180f565b61012d610230366004611d48565b61181e565b610248610243366004611da7565b6118df565b60405161014f949392919061237d565b60656000610264611933565b6001600160a01b0316815260208101919091526040016000205460ff166102a65760405162461bcd60e51b815260040161029d90612214565b60405180910390fd5b60006098826040516102b89190611ee7565b908152604051908190036020018120600b8101805460ff600160a01b80830491909116150260ff60a01b19909116179055915081906098906102fb908590611ee7565b9081526040519081900360200181208254815560018084015490820180546001600160a01b03199081166001600160a01b03938416179091556002808601549084015560038086015490840155600480860154908401805460ff928316151560ff199091161790556005808701549085015560068087015490850180548416918516919091179055600780870154908501556008808701549085018054841691851691909117905560098087015490850180548416918516919091179055600a8087015490850180548416918516919091179055600b9586018054948701805490931694909316939093178082559154600160a01b9081900484161515810260ff60a01b19909316929092179055928401547f626011434d37be710239e5fe13eb26309a90297d04263158a746e8d5fe27226293610440938793919092041690611fba565b60405180910390a15050565b6000610456610b17565b156104735760405162461bcd60e51b815260040161029d906120ce565b60006098836040516104859190611ee7565b9081526040805191829003602090810183206101a0840183528054845260018101546001600160a01b039081168584015260028201548585015260038201546060860152600482015460ff90811615156080870152600583015460a08701526006830154821660c0870152600783015460e08701526008830154821661010087015260098301548216610120870152600a8301548216610140870152600b90920154908116610160860152600160a01b9004161515610180840152336000908152609a90915220549091508061056d5760405162461bcd60e51b815260040161029d906122f5565b336000818152609a602052604080822091909155610120840151905163a9059cbb60e01b81526001600160a01b039091169163a9059cbb916105b491908590600401611f55565b602060405180830381600087803b1580156105ce57600080fd5b505af11580156105e2573d6000803e3d6000fd5b505050506040513d601f19601f820116820180604052508101906106069190611d87565b50336000908152609a602052604090205550600192915050565b6065600061062c611933565b6001600160a01b0316815260208101919091526040016000205460ff166106655760405162461bcd60e51b815260040161029d90612214565b61066d611937565b7f306ed53d42cd797c920677bb8dfc5a94593e76b98e9d87603350f8b82a548b52600060405161069d9190611f6e565b60405180910390a1565b6106af610b17565b156106cc5760405162461bcd60e51b815260040161029d906120ce565b606560006106d8611933565b6001600160a01b0316815260208101919091526040016000205460ff166107115760405162461bcd60e51b815260040161029d90612214565b60006098826040516107239190611ee7565b908152604051908190036020019020600b81015490915060ff600160a01b90910416156107625760405162461bcd60e51b815260040161029d9061225c565b80544210156107835760405162461bcd60e51b815260040161029d90612287565b600481015460ff16156107a85760405162461bcd60e51b815260040161029d90612287565b60048101805460ff1916600117905560405181906098906107ca908590611ee7565b9081526040519081900360200181208254815560018084015481830180546001600160a01b03199081166001600160a01b03938416179091556002808701548186015560038088015490860155600480880154908601805460ff928316151560ff199091161790556005808901549087015560068089015490870180548516918616919091179055600780890154908701556008808901549087018054851691861691909117905560098089015490870180548516918616919091179055600a8089015490870180548516918616919091179055600b9788018054989096018054909316978416979097178083559454600160a01b90819004909716151590960260ff60a01b1990941693909317909255840154928401547fdaec4582d5d9595688c8c98545fdd1c696d41c6aeaeb636737e84ed2f5c00eda9361091093921691611f55565b60405180910390a1600281015415610b13576000610931826002015461199b565b6009830154600684015460028501549293506001600160a01b03918216926323b872dd92309216906109649086906123fb565b6040518463ffffffff1660e01b815260040161098293929190611f17565b602060405180830381600087803b15801561099c57600080fd5b505af11580156109b0573d6000803e3d6000fd5b505050506040513d601f19601f820116820180604052508101906109d49190611d87565b6109f05760405162461bcd60e51b815260040161029d9061212f565b60098201546099546040516323b872dd60e01b81526001600160a01b03928316926323b872dd92610a2b923092909116908690600401611f17565b602060405180830381600087803b158015610a4557600080fd5b505af1158015610a59573d6000803e3d6000fd5b505050506040513d601f19601f82011682018060405250810190610a7d9190611d87565b610a995760405162461bcd60e51b815260040161029d9061212f565b6008820154600683015460018401546005850154604051632142170760e11b81526001600160a01b03948516946342842e0e94610adf9490821693911691600401611f17565b600060405180830381600087803b158015610af957600080fd5b505af1158015610b0d573d6000803e3d6000fd5b50505050505b5050565b60665460ff1690565b610b28610b17565b15610b455760405162461bcd60e51b815260040161029d906120ce565b60656000610b51611933565b6001600160a01b0316815260208101919091526040016000205460ff16610b8a5760405162461bcd60e51b815260040161029d90612214565b6000609882604051610b9c9190611ee7565b908152604051908190036020019020600b81015490915060ff600160a01b9091041615610bdb5760405162461bcd60e51b815260040161029d9061225c565b8054421015610bfc5760405162461bcd60e51b815260040161029d906121b2565b600281015415610c1e5760405162461bcd60e51b815260040161029d9061233d565b60048101805460ff191660011790556040518190609890610c40908590611ee7565b9081526040519081900360200181208254815560018084015490820180546001600160a01b03199081166001600160a01b03938416179091556002808601549084015560038086015490840155600480860154908401805460ff928316151560ff199091161790556005808701549085015560068087015490850180548416918516919091179055600780870154908501556008808701549085018054841691851691909117905560098087015490850180548416918516919091179055600a8087015490850180548416918516919091179055600b958601805496909401805490921695909216949094178085559154600160a01b9081900490911615150260ff60a01b19909116179091557f40ba53bba6e065ce376c63b248ea0b7c92938a3a42984a83aafb3947ca9a2add90610440908490611f79565b610d82610b17565b15610d9f5760405162461bcd60e51b815260040161029d906120ce565b6000609883604051610db19190611ee7565b9081526040805191829003602090810183206101a0840183528054845260018101546001600160a01b039081169285019290925260028101549284019290925260038201546060840152600482015460ff90811615156080850152600583015460a08501526006830154821660c0850152600783015460e08501526008830154821661010085015260098301548216610120850152600a8301548216610140850152600b90920154908116610160840152600160a01b900416158015610180830152909150610e925760405162461bcd60e51b815260040161029d9061225c565b8051421115610eb35760405162461bcd60e51b815260040161029d9061209e565b8060600151821015610ed75760405162461bcd60e51b815260040161029d906120f8565b80604001518211610efa5760405162461bcd60e51b815260040161029d906120f8565b604081015115610f47578060400151609a600083602001516001600160a01b03166001600160a01b031681526020019081526020016000206000828254610f4191906123a4565b90915550505b6101208101516040516370a0823160e01b815283916001600160a01b0316906370a0823190610f7a903390600401611f03565b60206040518083038186803b158015610f9257600080fd5b505afa158015610fa6573d6000803e3d6000fd5b505050506040513d601f19601f82011682018060405250810190610fca9190611ea3565b1015610fe85760405162461bcd60e51b815260040161029d90612074565b610120810151604051636eb1769f60e11b81526000916001600160a01b03169063dd62ed3e9061101e9033903090600401611f3b565b60206040518083038186803b15801561103657600080fd5b505afa15801561104a573d6000803e3d6000fd5b505050506040513d601f19601f8201168201806040525081019061106e9190611ea3565b905082811461108f5760405162461bcd60e51b815260040161029d906122be565b8161012001516001600160a01b03166323b872dd3330866040518463ffffffff1660e01b81526004016110c493929190611f17565b602060405180830381600087803b1580156110de57600080fd5b505af11580156110f2573d6000803e3d6000fd5b505050506040513d601f19601f820116820180604052508101906111169190611d87565b6111325760405162461bcd60e51b815260040161029d9061212f565b3360208301526040808301849052518290609890611151908790611ee7565b908152604080516020928190038301812084518155928401516001840180546001600160a01b03199081166001600160a01b039384161790915592850151600285015560608501516003850155608085015160048501805460ff191691151591909117905560a0850151600585015560c0850151600685018054851691831691909117905560e0850151600785015561010085015160088501805485169183169190911790556101208501516009850180548516918316919091179055610140850151600a850180548516918316919091179055610160850151600b9094018054610180909601519590931693169290921760ff60a01b1916600160a01b93151593909302929092179091557f09ebc52e266ac5a74a7023baa944297cebe45e95d491a17e87d3ab92694bac579061128e90869033908790611f8c565b60405180910390a150505050565b6112a4611933565b6001600160a01b03166112b56113d2565b6001600160a01b0316146112db5760405162461bcd60e51b815260040161029d906121df565b6033546040516000916001600160a01b0316907f8be0079c531659141344cd1fd0a4f28419497f9722a3daafe3b4186f6b6457e0908390a3603380546001600160a01b0319169055565b600060656000611333611933565b6001600160a01b0316815260208101919091526040016000205460ff16905090565b60656000611361611933565b6001600160a01b0316815260208101919091526040016000205460ff1661139a5760405162461bcd60e51b815260040161029d90612214565b6113a26119ba565b7f8a366fcf0cdff71fc1946279a88cbb2845d8628abc79fc766e3593ff82154d05600160405161069d9190611f6e565b6033546001600160a01b031690565b6113e9611933565b6001600160a01b03166113fa6113d2565b6001600160a01b0316146114205760405162461bcd60e51b815260040161029d906121df565b6001600160a01b03166000908152606560205260409020805460ff19166001179055565b61144c610b17565b156114695760405162461bcd60e51b815260040161029d906120ce565b60656000611475611933565b6001600160a01b0316815260208101919091526040016000205460ff166114ae5760405162461bcd60e51b815260040161029d90612214565b6040516331a9108f60e11b815282906000906001600160a01b03831690636352211e906114df908990600401612374565b602060405180830381600087803b1580156114f957600080fd5b505af115801561150d573d6000803e3d6000fd5b505050506040513d601f19601f820116820180604052508101906115319190611d6b565b604080516101a081018252898152600060208201819052818301819052606082018990526080820181905260a082018a90526001600160a01b0380851660c0840152683635c9adc5dea0000060e0840152868116610100840152878116610120840181905290891661014084015261016083015261018082015290519192509081906098906115c1908c90611ee7565b908152604080516020928190038301812084518155928401516001840180546001600160a01b03199081166001600160a01b039384161790915592850151600285015560608501516003850155608085015160048501805460ff191691151591909117905560a0850151600585015560c0850151600685018054851691831691909117905560e0850151600785015561010085015160088501805485169183169190911790556101208501516009850180548516918316919091179055610140850151600a850180548516918316919091179055610160850151600b9094018054610180909601519590931693169290921760ff60a01b1916600160a01b93151593909302929092179091557fc01d05bc626d601679e99eb80cbc27d2e0d6f676e5946b25e47c6cc6d1fff04f906116fc908b908a90611fde565b60405180910390a1505050505050505050565b611717611933565b6001600160a01b03166117286113d2565b6001600160a01b03161461174e5760405162461bcd60e51b815260040161029d906121df565b6001600160a01b03166000908152606560205260409020805460ff19169055565b600054610100900460ff1680611788575060005460ff16155b6117a45760405162461bcd60e51b815260040161029d90612164565b600054610100900460ff161580156117cf576000805460ff1961ff0019909116610100171660011790555b6117d7611a15565b6117df611a9a565b609980546001600160a01b0319166001600160a01b0384161790558015610b13576000805461ff00191690555050565b6099546001600160a01b031681565b611826611933565b6001600160a01b03166118376113d2565b6001600160a01b03161461185d5760405162461bcd60e51b815260040161029d906121df565b6001600160a01b0381166118835760405162461bcd60e51b815260040161029d9061202e565b6033546040516001600160a01b038084169216907f8be0079c531659141344cd1fd0a4f28419497f9722a3daafe3b4186f6b6457e090600090a3603380546001600160a01b0319166001600160a01b0392909216919091179055565b60008060008060006098866040516118f79190611ee7565b90815260405190819003602001902080546006820154600283015460019093015491996001600160a01b03918216995092975016945092505050565b3390565b61193f610b17565b61195b5760405162461bcd60e51b815260040161029d90612000565b6066805460ff191690557f5db9ee0a495bf2e6ff9c91a7834c1ba4fdd244a5e8aa4e537bd38aeae4b073aa61198e611933565b60405161069d9190611f03565b600060646119aa83600a6123dc565b6119b491906123bc565b92915050565b6119c2610b17565b156119df5760405162461bcd60e51b815260040161029d906120ce565b6066805460ff191660011790557f62e78cea01bee320cd4e420270b5ea74000d11b0c9f74754ebdbfc544b05a25861198e611933565b600054610100900460ff1680611a2e575060005460ff16155b611a4a5760405162461bcd60e51b815260040161029d90612164565b600054610100900460ff16158015611a75576000805460ff1961ff0019909116610100171660011790555b611a7d611b0a565b611a85611b7d565b8015611a97576000805461ff00191690555b50565b600054610100900460ff1680611ab3575060005460ff16155b611acf5760405162461bcd60e51b815260040161029d90612164565b600054610100900460ff16158015611afa576000805460ff1961ff0019909116610100171660011790555b611b02611b0a565b611a85611c49565b600054610100900460ff1680611b23575060005460ff16155b611b3f5760405162461bcd60e51b815260040161029d90612164565b600054610100900460ff16158015611a85576000805460ff1961ff0019909116610100171660011790558015611a97576000805461ff001916905550565b600054610100900460ff1680611b96575060005460ff16155b611bb25760405162461bcd60e51b815260040161029d90612164565b600054610100900460ff16158015611bdd576000805460ff1961ff0019909116610100171660011790555b6000611be7611933565b603380546001600160a01b0319166001600160a01b038316908117909155604051919250906000907f8be0079c531659141344cd1fd0a4f28419497f9722a3daafe3b4186f6b6457e0908290a3508015611a97576000805461ff001916905550565b600054610100900460ff1680611c62575060005460ff16155b611c7e5760405162461bcd60e51b815260040161029d90612164565b600054610100900460ff16158015611ca9576000805460ff1961ff0019909116610100171660011790555b6066805460ff191690558015611a97576000805461ff001916905550565b600082601f830112611cd7578081fd5b813567ffffffffffffffff80821115611cf257611cf2612458565b604051601f8301601f191681016020018281118282101715611d1657611d16612458565b604052828152848301602001861015611d2d578384fd5b82602086016020830137918201602001929092529392505050565b600060208284031215611d59578081fd5b8135611d648161246e565b9392505050565b600060208284031215611d7c578081fd5b8151611d648161246e565b600060208284031215611d98578081fd5b81518015158114611d64578182fd5b600060208284031215611db8578081fd5b813567ffffffffffffffff811115611dce578182fd5b611dda84828501611cc7565b949350505050565b60008060408385031215611df4578081fd5b823567ffffffffffffffff811115611e0a578182fd5b611e1685828601611cc7565b95602094909401359450505050565b60008060008060008060c08789031215611e3d578182fd5b863567ffffffffffffffff811115611e53578283fd5b611e5f89828a01611cc7565b9650506020870135945060408701359350606087013592506080870135611e858161246e565b915060a0870135611e958161246e565b809150509295509295509295565b600060208284031215611eb4578081fd5b5051919050565b60008151808452611ed3816020860160208601612412565b601f01601f19169290920160200192915050565b60008251611ef9818460208701612412565b9190910192915050565b6001600160a01b0391909116815260200190565b6001600160a01b039384168152919092166020820152604081019190915260600190565b6001600160a01b0392831681529116602082015260400190565b6001600160a01b03929092168252602082015260400190565b901515815260200190565b600060208252611d646020830184611ebb565b600060608252611f9f6060830186611ebb565b6001600160a01b039490941660208301525060400152919050565b600060408252611fcd6040830185611ebb565b905082151560208301529392505050565b600060408252611ff16040830185611ebb565b90508260208301529392505050565b60208082526014908201527314185d5cd8589b194e881b9bdd081c185d5cd95960621b604082015260600190565b60208082526026908201527f4f776e61626c653a206e6577206f776e657220697320746865207a65726f206160408201526564647265737360d01b606082015260800190565b60208082526010908201526f4e6f7420656e6f7567682066756e647360801b604082015260600190565b602080825260169082015275151a1a5cc8185d58dd1a5bdb881a185cc8195b99195960521b604082015260600190565b60208082526010908201526f14185d5cd8589b194e881c185d5cd95960821b604082015260600190565b60208082526018908201527f546865206269642076616c756520697320696e76616c69640000000000000000604082015260600190565b6020808252818101527f546865207472616e73616374696f6e20776173206e6f7420617070726f766564604082015260600190565b6020808252602e908201527f496e697469616c697a61626c653a20636f6e747261637420697320616c72656160408201526d191e481a5b9a5d1a585b1a5e995960921b606082015260800190565b602080825260139082015272151a19481d1a5b59481cdd1a5b1b0819dbdbd9606a1b604082015260600190565b6020808252818101527f4f776e61626c653a2063616c6c6572206973206e6f7420746865206f776e6572604082015260600190565b60208082526028908201527f4f70657261746f72526f6c653a2063616c6c6572206973206e6f74207468652060408201526737b832b930ba37b960c11b606082015260800190565b602080825260119082015270105d58dd1a5bdb881a5cc81c185d5cd959607a1b604082015260600190565b6020808252601d908201527f5468652061756374696f6e20686173206e6f7420656e64656420796574000000604082015260600190565b60208082526019908201527f436865636b2074686520546f6b656e20616c6c6f77616e636500000000000000604082015260600190565b60208082526028908201527f546865206164647265737320686173206e6f7468696e67206c65667420746f20604082015267776974686472617760c01b606082015260800190565b6020808252601e908201527f49742068617320626964732c20796f752063616e6e6f742063616e63656c0000604082015260600190565b90815260200190565b9384526001600160a01b039283166020850152604084019190915216606082015260800190565b600082198211156123b7576123b7612442565b500190565b6000826123d757634e487b7160e01b81526012600452602481fd5b500490565b60008160001904831182151516156123f6576123f6612442565b500290565b60008282101561240d5761240d612442565b500390565b60005b8381101561242d578181015183820152602001612415565b8381111561243c576000848401525b50505050565b634e487b7160e01b600052601160045260246000fd5b634e487b7160e01b600052604160045260246000fd5b6001600160a01b0381168114611a9757600080fdfea2646970667358221220ed1983fd77a8a8995efbb4290ebf0b9fabd52b8344878fcb2b79f34b09a599e764736f6c63430008000033",
  "immutableReferences": {},
  "source": "// SPDX-License-Identifier: GOG\npragma solidity ^0.8.0;\n\nimport \"./IERC721.sol\";\nimport \"./OperatorRole.sol\";\nimport \"@openzeppelin/contracts-upgradeable/utils/cryptography/ECDSAUpgradeable.sol\";\nimport \"@openzeppelin/contracts-upgradeable/security/PausableUpgradeable.sol\";\nimport \"@openzeppelin/contracts/token/ERC20/IERC20.sol\";\n\ncontract GOGAuction is OperatorRole, PausableUpgradeable {\n\n    using ECDSAUpgradeable for bytes32;\n\n    struct Auction {\n        // Parameters of the auction. Times are either\n        // absolute unix timestamps (seconds since 1970-01-01)\n        // or time periods in seconds.\n        uint auctionEnd;\n\n        // Current state of the auction.\n        address highestBidder;\n        uint highestBid;\n\n        //Minumin Bid Set by the beneficiary\n        uint minimumBid;\n\n        // Set to true at the end, disallows any change\n        bool ended;\n\n        //Artwork being Auctioned\n        uint artwork;\n\n        //Beneficiary\n        address payable beneficiary;\n\n        //buynow price\n        uint buyNowPrice;\n\n        IERC721 ERC721;\n\n        IERC20 ERC20;\n\n        address ERC721ContractAddress;\n\n        address ERC20ContractAddress;\n\n        bool paused;\n                \n    }\n\n    mapping (string => Auction) Auctions;\n\n    address payable public gogWallet;\n\n    // Allowed withdrawals of previous bids\n    mapping(address => uint) pendingReturns;\n\n    // Events that will be fired on changes.\n    event HighestBidIncreased(string auction, address bidder, uint amount);\n    event AuctionEnded(address winner, uint amount);\n    event BuyNow(address buyer, uint amount);\n    event AuctionCancel(string auction);\n    event NewAuctionCreated(string auctionId, uint artwork);\n    event DidNotFinishYet(uint time, uint auctionTime);\n    event NotTheContractOwner(address owner, address sender);\n    event ContractIsPaused(bool paused);\n    event ContractIsResumed(bool paused);\n    event AuctionToogled(string auctionId, bool paused);\n\n    /// Create a simple auction with `_biddingTime`\n    /// seconds bidding time on behalf of the\n    /// beneficiary address `_wallet`.\n    function initialize (\n        address _wallet\n    ) public initializer\n    {   \n        __OperatorRole_init();\n        __Pausable_init();\n\n        gogWallet = payable(_wallet);\n    }\n\n    /**\n     * @dev Triggers smart contract to stopped state\n     */\n    function pause()\n        public\n        onlyOperator\n    {\n        _pause();\n        emit ContractIsPaused(true);\n    }\n\n    /**\n     * @dev Returns smart contract to normal state\n     */\n    function unpause()\n        public\n        onlyOperator\n    {\n        _unpause();\n        emit ContractIsResumed(false);\n    }\n\n    function createAuction(string memory _id, uint _biddingTime, uint _artwork, uint _minimumPrice, address _erc721ContractAddress, address _erc20ContractAddress) public whenNotPaused onlyOperator {\n\n        IERC721 ERC721 = IERC721(_erc721ContractAddress);\n        address _owner = ERC721.ownerOf(_artwork);\n\n        Auction memory auction = Auction({\n            auctionEnd: _biddingTime,\n            artwork: _artwork,\n            beneficiary: payable(_owner),\n            highestBidder: address(0),\n            highestBid: 0,\n            ended: false,\n            minimumBid: _minimumPrice,\n            buyNowPrice: 1000 ether,\n            ERC721: ERC721,\n            ERC20: IERC20(_erc20ContractAddress),\n            ERC721ContractAddress: _erc721ContractAddress,\n            ERC20ContractAddress: _erc20ContractAddress,\n            paused: false\n        });\n\n        Auctions[_id] = auction;\n\n        emit NewAuctionCreated(_id, _artwork);\n\n    }\n\n    /// Bid on an auction with the value sent\n    /// together with this transaction.\n    /// The value will only be refunded if the\n    /// auction is not won.\n    function bid(string memory _auction, uint _amount) public whenNotPaused {\n\n        Auction memory auction = Auctions[_auction];\n        \n        require(!auction.paused, \"Auction is paused\");\n        // Revert the call if the bidding\n        // period is over.\n        require(block.timestamp <= auction.auctionEnd, \"This auction has ended\");\n\n        // Revert the call value is less than the minimumBid.\n        require(_amount >= auction.minimumBid, \"The bid value is invalid\");\n\n        // If the bid is not higher, send the\n        // money back.\n        require(_amount > auction.highestBid, \"The bid value is invalid\");\n\n        if (auction.highestBid != 0) {\n            // Sending back the money by simply using\n            // highestBidder.send(highestBid) is a security risk\n            // because it could execute an untrusted contract.\n            // It is always safer to let the recipients\n            // withdraw their money themselves.\n            pendingReturns[auction.highestBidder] += auction.highestBid;\n        }\n\n        require(auction.ERC20.balanceOf(msg.sender) >= _amount, \"Not enough funds\");\n\n        uint256 allowance = auction.ERC20.allowance(msg.sender, address(this));\n        require(allowance == _amount, \"Check the Token allowance\");\n        \n        require(auction.ERC20.transferFrom(msg.sender, address(this), _amount), \"The transaction was not approved\");\n\n        auction.highestBidder = msg.sender;\n        auction.highestBid = _amount;\n        Auctions[_auction] = auction;\n        emit HighestBidIncreased(_auction, msg.sender, _amount);\n    }\n\n    /* function buyNow(string memory _auction, uint _amount) public {\n\n        Auction storage auction = Auctions[_auction];\n\n        require(block.timestamp >= auction.auctionEnd, \"Auction still active, can't buy now\"); // auction has ended\n        require(!auction.ended, \"Auction still not finished\"); // this function has already been called\n\n        //Require that the value sent is the buyNowPrice Set by the Owner/Benneficary\n        require(_amount == auction.buyNowPrice, \"The ammount is not corrrect\");\n\n        //Require that there are no bids\n        require(auction.highestBid == 0, \"This auction has bids already\");\n\n        require(ERC20.balanceOf(msg.sender) >= _amount, \"Not enough funds\");\n\n        uint256 allowance = ERC20.allowance(msg.sender, address(this));\n        require(allowance == _amount, \"Check the Token allowance\");\n\n        //Tranfer ERC20\n        uint fee = calculateFee(_amount);\n        require(ERC20.transferFrom(msg.sender, auction.beneficiary, _amount-fee), \"The transaction was not approved\");\n        require(ERC20.transferFrom(msg.sender, gogWallet, fee), \"The transaction was not approved\");\n\n        // End Auction\n        auction.ended = true;\n        auction.highestBid = _amount;\n        Auctions[_auction] = auction;\n        emit BuyNow(msg.sender, _amount);\n        \n        ERC721Gog.safeTransferFrom(auction.beneficiary, msg.sender, auction.artwork);\n        \n        \n    } */\n\n    /// Withdraw a bid that was overbid.\n    function withdraw(string memory _auction) public whenNotPaused returns (bool) {\n        \n        Auction memory auction = Auctions[_auction];\n\n        uint amount = pendingReturns[msg.sender];\n        require(amount > 0, \"The address has nothing left to withdraw\");\n        \n        // It is important to set this to zero because the recipient\n        // can call this function again as part of the receiving call\n        // before `send` returns.\n        pendingReturns[msg.sender] = 0;\n        auction.ERC20.transfer(msg.sender, amount);\n\n        // No need to call throw here, just reset the amount owing\n        pendingReturns[msg.sender] = amount;\n        \n        return true;\n    }\n\n    function auctionCancel(string memory _auction) public whenNotPaused onlyOperator {\n\n        Auction storage auction = Auctions[_auction];\n\n        require(!auction.paused, \"Auction is paused\");\n\n        //Auction Ended\n        require(block.timestamp >= auction.auctionEnd, \"The time still good\");\n\n        //has no maxbid \n        require(auction.highestBid == 0, \"It has bids, you cannot cancel\");\n\n        auction.ended = true;\n        Auctions[_auction] = auction;\n        emit AuctionCancel(_auction);\n\n    }\n\n    /// End the auction and send the highest bid\n    /// to the beneficiary and 10% to GOG.\n    function auctionEnd(string memory _auction) public whenNotPaused onlyOperator {\n\n        Auction storage auction = Auctions[_auction];\n\n        require(!auction.paused, \"Auction is paused\");\n\n        require (block.timestamp >= auction.auctionEnd, \"The auction has not ended yet\"); // auction has ended\n        require(!auction.ended, \"The auction has not ended yet\"); // this function has already been called\n        \n        // End Auction\n        auction.ended = true;\n        Auctions[_auction] = auction;\n\n        emit AuctionEnded(auction.highestBidder, auction.highestBid);\n        if (auction.highestBid != 0) {\n            uint fee = calculateFee(auction.highestBid);\n            require(auction.ERC20.transferFrom(address(this), auction.beneficiary, auction.highestBid-fee), \"The transaction was not approved\");\n            require(auction.ERC20.transferFrom(address(this), gogWallet, fee), \"The transaction was not approved\");\n\n            // Send the token\n            // If the auction was created by the gallery mint the token otherwise just transfer\n            \n            auction.ERC721.safeTransferFrom(auction.beneficiary, auction.highestBidder, auction.artwork);\n\n        }\n\n    }\n\n    function toggleAuction(string memory _auction) public onlyOperator {\n\n        Auction storage auction = Auctions[_auction];\n        \n        // End Auction\n        auction.paused = !auction.paused;\n        Auctions[_auction] = auction;\n\n        emit AuctionToogled(_auction, auction.paused);\n        \n    }\n\n    function getAuctionInfo(string memory _auction) public view returns (uint end, address beneficiary, uint maxBid, address maxBidder) {\n\n        Auction storage auction = Auctions[_auction];\n\n        end = auction.auctionEnd;\n        beneficiary = auction.beneficiary;\n        maxBid = auction.highestBid;\n        maxBidder = auction.highestBidder;\n    }\n\n    function calculateFee (uint256 _price) internal pure returns(uint) {\n        return (_price * 10)/100;\n    }\n\n    function canOperate() public view returns(bool) {\n        return operators[_msgSender()];\n    }\n}",
  "sourcePath": "/Users/rogerssampaio/Sites/GOG-Contracts/contracts/ethereum/GOGAuction.sol",
  "compiler": {
    "name": "solc",
    "version": "0.8.0+commit.c7dfd78e.Emscripten.clang"
  },
  "schemaVersion": "3.4.1",
  "updatedAt": "2021-09-15T10:20:38.221Z",
  "networkType": "ethereum",
  "devdoc": {
    "kind": "dev",
    "methods": {
      "owner()": {
        "details": "Returns the address of the current owner."
      },
      "pause()": {
        "details": "Triggers smart contract to stopped state"
      },
      "paused()": {
        "details": "Returns true if the contract is paused, and false otherwise."
      },
      "renounceOwnership()": {
        "details": "Leaves the contract without owner. It will not be possible to call `onlyOwner` functions anymore. Can only be called by the current owner. NOTE: Renouncing ownership will leave the contract without an owner, thereby removing any functionality that is only available to the owner."
      },
      "transferOwnership(address)": {
        "details": "Transfers ownership of the contract to a new account (`newOwner`). Can only be called by the current owner."
      },
      "unpause()": {
        "details": "Returns smart contract to normal state"
      }
    },
    "version": 1
  },
  "userdoc": {
    "kind": "user",
    "methods": {
      "auctionEnd(string)": {
        "notice": "End the auction and send the highest bid to the beneficiary and 10% to GOG."
      },
      "bid(string,uint256)": {
        "notice": "Bid on an auction with the value sent together with this transaction. The value will only be refunded if the auction is not won."
      },
      "initialize(address)": {
        "notice": "Create a simple auction with `_biddingTime` seconds bidding time on behalf of the beneficiary address `_wallet`."
      },
      "withdraw(string)": {
        "notice": "Withdraw a bid that was overbid."
      }
    },
    "version": 1
  },
  "db": {
    "callBytecode": {
      "id": "0x49c9ce41a213eebfbe9791742aacd1e03aab2f8e1732390bd7d2f8c8592bace8"
    },
    "createBytecode": {
      "id": "0x0ce4d93ce86d503e21a7d53537e2d63dbbc1c4a2c3ddb7a6e6bbec615e00d237"
    },
    "contract": {
      "id": "0x6c448b4887090ce86658f78ee82066db3df3d5bddfc3f7fcbec228de2ffa9c25"
    }
  }
}