{
  "contractName": "GOGAuctionV2",
  "abi": [
    {
      "anonymous": false,
      "inputs": [
        {
          "indexed": false,
          "internalType": "string",
          "name": "auction",
          "type": "string"
        }
      ],
      "name": "AuctionCancel",
      "type": "event"
    },
    {
      "anonymous": false,
      "inputs": [
        {
          "indexed": false,
          "internalType": "address",
          "name": "winner",
          "type": "address"
        },
        {
          "indexed": false,
          "internalType": "uint256",
          "name": "amount",
          "type": "uint256"
        }
      ],
      "name": "AuctionEnded",
      "type": "event"
    },
    {
      "anonymous": false,
      "inputs": [
        {
          "indexed": false,
          "internalType": "string",
          "name": "auctionId",
          "type": "string"
        },
        {
          "indexed": false,
          "internalType": "bool",
          "name": "paused",
          "type": "bool"
        }
      ],
      "name": "AuctionToogled",
      "type": "event"
    },
    {
      "anonymous": false,
      "inputs": [
        {
          "indexed": false,
          "internalType": "address",
          "name": "buyer",
          "type": "address"
        },
        {
          "indexed": false,
          "internalType": "uint256",
          "name": "amount",
          "type": "uint256"
        }
      ],
      "name": "BuyNow",
      "type": "event"
    },
    {
      "anonymous": false,
      "inputs": [
        {
          "indexed": false,
          "internalType": "bool",
          "name": "paused",
          "type": "bool"
        }
      ],
      "name": "ContractIsPaused",
      "type": "event"
    },
    {
      "anonymous": false,
      "inputs": [
        {
          "indexed": false,
          "internalType": "bool",
          "name": "paused",
          "type": "bool"
        }
      ],
      "name": "ContractIsResumed",
      "type": "event"
    },
    {
      "anonymous": false,
      "inputs": [
        {
          "indexed": false,
          "internalType": "uint256",
          "name": "time",
          "type": "uint256"
        },
        {
          "indexed": false,
          "internalType": "uint256",
          "name": "auctionTime",
          "type": "uint256"
        }
      ],
      "name": "DidNotFinishYet",
      "type": "event"
    },
    {
      "anonymous": false,
      "inputs": [
        {
          "indexed": false,
          "internalType": "string",
          "name": "auction",
          "type": "string"
        },
        {
          "indexed": false,
          "internalType": "address",
          "name": "bidder",
          "type": "address"
        },
        {
          "indexed": false,
          "internalType": "uint256",
          "name": "amount",
          "type": "uint256"
        }
      ],
      "name": "HighestBidIncreased",
      "type": "event"
    },
    {
      "anonymous": false,
      "inputs": [
        {
          "indexed": false,
          "internalType": "string",
          "name": "auctionId",
          "type": "string"
        },
        {
          "indexed": false,
          "internalType": "uint256",
          "name": "artwork",
          "type": "uint256"
        }
      ],
      "name": "NewAuctionCreated",
      "type": "event"
    },
    {
      "anonymous": false,
      "inputs": [
        {
          "indexed": false,
          "internalType": "address",
          "name": "owner",
          "type": "address"
        },
        {
          "indexed": false,
          "internalType": "address",
          "name": "sender",
          "type": "address"
        }
      ],
      "name": "NotTheContractOwner",
      "type": "event"
    },
    {
      "anonymous": false,
      "inputs": [
        {
          "indexed": true,
          "internalType": "address",
          "name": "previousOwner",
          "type": "address"
        },
        {
          "indexed": true,
          "internalType": "address",
          "name": "newOwner",
          "type": "address"
        }
      ],
      "name": "OwnershipTransferred",
      "type": "event"
    },
    {
      "anonymous": false,
      "inputs": [
        {
          "indexed": false,
          "internalType": "address",
          "name": "account",
          "type": "address"
        }
      ],
      "name": "Paused",
      "type": "event"
    },
    {
      "anonymous": false,
      "inputs": [
        {
          "indexed": false,
          "internalType": "address",
          "name": "account",
          "type": "address"
        }
      ],
      "name": "Unpaused",
      "type": "event"
    },
    {
      "inputs": [
        {
          "internalType": "address",
          "name": "operator",
          "type": "address"
        }
      ],
      "name": "addOperator",
      "outputs": [],
      "stateMutability": "nonpayable",
      "type": "function"
    },
    {
      "inputs": [],
      "name": "gogWallet",
      "outputs": [
        {
          "internalType": "address payable",
          "name": "",
          "type": "address"
        }
      ],
      "stateMutability": "view",
      "type": "function"
    },
    {
      "inputs": [],
      "name": "owner",
      "outputs": [
        {
          "internalType": "address",
          "name": "",
          "type": "address"
        }
      ],
      "stateMutability": "view",
      "type": "function"
    },
    {
      "inputs": [],
      "name": "paused",
      "outputs": [
        {
          "internalType": "bool",
          "name": "",
          "type": "bool"
        }
      ],
      "stateMutability": "view",
      "type": "function"
    },
    {
      "inputs": [
        {
          "internalType": "address",
          "name": "operator",
          "type": "address"
        }
      ],
      "name": "removeOperator",
      "outputs": [],
      "stateMutability": "nonpayable",
      "type": "function"
    },
    {
      "inputs": [],
      "name": "renounceOwnership",
      "outputs": [],
      "stateMutability": "nonpayable",
      "type": "function"
    },
    {
      "inputs": [
        {
          "internalType": "address",
          "name": "newOwner",
          "type": "address"
        }
      ],
      "name": "transferOwnership",
      "outputs": [],
      "stateMutability": "nonpayable",
      "type": "function"
    },
    {
      "inputs": [
        {
          "internalType": "address",
          "name": "_wallet",
          "type": "address"
        }
      ],
      "name": "initialize",
      "outputs": [],
      "stateMutability": "nonpayable",
      "type": "function"
    },
    {
      "inputs": [],
      "name": "pause",
      "outputs": [],
      "stateMutability": "nonpayable",
      "type": "function"
    },
    {
      "inputs": [],
      "name": "unpause",
      "outputs": [],
      "stateMutability": "nonpayable",
      "type": "function"
    },
    {
      "inputs": [
        {
          "internalType": "string",
          "name": "_id",
          "type": "string"
        },
        {
          "internalType": "uint256",
          "name": "_biddingTime",
          "type": "uint256"
        },
        {
          "internalType": "uint256",
          "name": "_artwork",
          "type": "uint256"
        },
        {
          "internalType": "uint256",
          "name": "_minimumPrice",
          "type": "uint256"
        },
        {
          "internalType": "uint256",
          "name": "_buynow",
          "type": "uint256"
        },
        {
          "internalType": "address",
          "name": "_erc721ContractAddress",
          "type": "address"
        },
        {
          "internalType": "address",
          "name": "_erc20ContractAddress",
          "type": "address"
        },
        {
          "internalType": "address",
          "name": "_artist",
          "type": "address"
        }
      ],
      "name": "createAuction",
      "outputs": [],
      "stateMutability": "nonpayable",
      "type": "function"
    },
    {
      "inputs": [
        {
          "internalType": "string",
          "name": "_id",
          "type": "string"
        },
        {
          "internalType": "uint256",
          "name": "_biddingTime",
          "type": "uint256"
        },
        {
          "internalType": "uint256",
          "name": "_artwork",
          "type": "uint256"
        },
        {
          "internalType": "uint256",
          "name": "_minimumPrice",
          "type": "uint256"
        },
        {
          "internalType": "uint256",
          "name": "_buynow",
          "type": "uint256"
        },
        {
          "internalType": "address",
          "name": "_erc721ContractAddress",
          "type": "address"
        },
        {
          "internalType": "address",
          "name": "_artist",
          "type": "address"
        }
      ],
      "name": "createAuctionEth",
      "outputs": [],
      "stateMutability": "nonpayable",
      "type": "function"
    },
    {
      "inputs": [
        {
          "internalType": "address",
          "name": "_artist",
          "type": "address"
        },
        {
          "internalType": "uint256",
          "name": "_artistPercentage",
          "type": "uint256"
        },
        {
          "internalType": "uint256",
          "name": "_galleryPercentage",
          "type": "uint256"
        }
      ],
      "name": "setRoyalty",
      "outputs": [],
      "stateMutability": "nonpayable",
      "type": "function"
    },
    {
      "inputs": [
        {
          "internalType": "string",
          "name": "_auction",
          "type": "string"
        },
        {
          "internalType": "uint256",
          "name": "_amount",
          "type": "uint256"
        }
      ],
      "name": "bid",
      "outputs": [],
      "stateMutability": "payable",
      "type": "function"
    },
    {
      "inputs": [
        {
          "internalType": "string",
          "name": "_auction",
          "type": "string"
        }
      ],
      "name": "withdrawERC20",
      "outputs": [
        {
          "internalType": "bool",
          "name": "",
          "type": "bool"
        }
      ],
      "stateMutability": "nonpayable",
      "type": "function"
    },
    {
      "inputs": [],
      "name": "withdrawEth",
      "outputs": [
        {
          "internalType": "bool",
          "name": "",
          "type": "bool"
        }
      ],
      "stateMutability": "nonpayable",
      "type": "function"
    },
    {
      "inputs": [
        {
          "internalType": "string",
          "name": "_auction",
          "type": "string"
        }
      ],
      "name": "auctionCancel",
      "outputs": [],
      "stateMutability": "nonpayable",
      "type": "function"
    },
    {
      "inputs": [
        {
          "internalType": "string",
          "name": "_auction",
          "type": "string"
        }
      ],
      "name": "auctionEnd",
      "outputs": [],
      "stateMutability": "nonpayable",
      "type": "function"
    },
    {
      "inputs": [
        {
          "internalType": "string",
          "name": "_auction",
          "type": "string"
        }
      ],
      "name": "toggleAuction",
      "outputs": [],
      "stateMutability": "nonpayable",
      "type": "function"
    },
    {
      "inputs": [
        {
          "internalType": "string",
          "name": "_auction",
          "type": "string"
        }
      ],
      "name": "getAuctionInfo",
      "outputs": [
        {
          "internalType": "uint256",
          "name": "end",
          "type": "uint256"
        },
        {
          "internalType": "address",
          "name": "beneficiary",
          "type": "address"
        },
        {
          "internalType": "uint256",
          "name": "maxBid",
          "type": "uint256"
        },
        {
          "internalType": "address",
          "name": "maxBidder",
          "type": "address"
        }
      ],
      "stateMutability": "view",
      "type": "function"
    },
    {
      "inputs": [],
      "name": "canOperate",
      "outputs": [
        {
          "internalType": "bool",
          "name": "",
          "type": "bool"
        }
      ],
      "stateMutability": "view",
      "type": "function"
    }
  ],
  "bytecode": "0x608060405234801561001057600080fd5b50613165806100206000396000f3fe6080604052600436106101295760003560e01c80638456cb59116100ab578063a0ef91df1161006f578063a0ef91df146102e4578063ac8a584a146102f9578063c4d66de814610319578063ebd9a30914610339578063f2fde38b1461034e578063f5ea3a9a1461036e57610129565b80638456cb591461024d5780638da5cb5b1461026257806394d66f0b146102845780639870d7fe146102a45780639ed838e7146102c457610129565b80635f483313116100f25780635f483313146101d0578063715018a6146101e357806375ff724c146101f8578063769b79b51461020d5780637cd71a1d1461022d57610129565b8062e6fc9d1461012e5780633f4ba83a1461015057806352852131146101655780635c975abb146101855780635e464d51146101b0575b600080fd5b34801561013a57600080fd5b5061014e61014936600461293b565b61039e565b005b34801561015c57600080fd5b5061014e610592565b34801561017157600080fd5b5061014e61018036600461293b565b610619565b34801561019157600080fd5b5061019a610a5a565b6040516101a79190612ba9565b60405180910390f35b3480156101bc57600080fd5b5061014e6101cb36600461293b565b610a63565b61014e6101de366004612976565b610cbd565b3480156101ef57600080fd5b5061014e61137d565b34801561020457600080fd5b5061019a611406565b34801561021957600080fd5b5061019a61022836600461293b565b611436565b34801561023957600080fd5b5061014e6102483660046129b9565b6115fb565b34801561025957600080fd5b5061014e6118fd565b34801561026e57600080fd5b5061027761197a565b6040516101a79190612b3e565b34801561029057600080fd5b5061014e61029f366004612a42565b611989565b3480156102b057600080fd5b5061014e6102bf3660046128af565b611cb3565b3480156102d057600080fd5b5061014e6102df3660046128e7565b611d16565b3480156102f057600080fd5b5061019a611d95565b34801561030557600080fd5b5061014e6103143660046128af565b611e2f565b34801561032557600080fd5b5061014e6103343660046128af565b611e8f565b34801561034557600080fd5b50610277611f30565b34801561035a57600080fd5b5061014e6103693660046128af565b611f3f565b34801561037a57600080fd5b5061038e61038936600461293b565b612000565b6040516101a79493929190613029565b606560006103aa612054565b6001600160a01b0316815260208101919091526040016000205460ff166103ec5760405162461bcd60e51b81526004016103e390612e7a565b60405180910390fd5b60006098826040516103fe9190612b22565b908152604051908190036020018120600b8101805460ff600160a01b80830491909116150260ff60a01b1990911617905591508190609890610441908590612b22565b9081526040519081900360200181208254815560018084015490820180546001600160a01b03199081166001600160a01b03938416179091556002808601549084015560038086015490840155600480860154908401805460ff928316151560ff199091161790556005808701549085015560068087015490850180548416918516919091179055600780870154908501556008808701549085018054841691851691909117905560098087015490850180548416918516919091179055600a8087015490850180548416918516919091179055600b9586018054948701805490931694909316939093178082559154600160a01b9081900484161515810260ff60a01b19909316929092179055928401547f626011434d37be710239e5fe13eb26309a90297d04263158a746e8d5fe27226293610586938793919092041690612bf5565b60405180910390a15050565b6065600061059e612054565b6001600160a01b0316815260208101919091526040016000205460ff166105d75760405162461bcd60e51b81526004016103e390612e7a565b6105df612058565b7f306ed53d42cd797c920677bb8dfc5a94593e76b98e9d87603350f8b82a548b52600060405161060f9190612ba9565b60405180910390a1565b610621610a5a565b1561063e5760405162461bcd60e51b81526004016103e390612d09565b6065600061064a612054565b6001600160a01b0316815260208101919091526040016000205460ff166106835760405162461bcd60e51b81526004016103e390612e7a565b60006098826040516106959190612b22565b908152604051908190036020019020600b81015490915060ff600160a01b90910416156106d45760405162461bcd60e51b81526004016103e390612ec2565b80544210156106f55760405162461bcd60e51b81526004016103e390612eed565b600481015460ff161561071a5760405162461bcd60e51b81526004016103e390612fda565b60048101805460ff19166001179055604051819060989061073c908590612b22565b9081526040519081900360200181208254815560018084015490820180546001600160a01b03199081166001600160a01b03938416179091556002808601549084015560038086015490840155600480860154908401805460ff928316151560ff199091161790556005808701549085015560068087015490850180548416918516919091179055600780870154908501556008808701549085018054841691851691909117905560098087015490850180548416918516919091179055600a8087015490850180548416918516919091179055600b958601805496909401805490921695909216949094178085559154600160a01b9081900490911615150260ff60a01b1990911617909155600090609d9061085a908590612b22565b90815260405190819003602001812054600184015460028501546001600160a01b0392831694507fdaec4582d5d9595688c8c98545fdd1c696d41c6aeaeb636737e84ed2f5c00eda936108b1939290921691612b90565b60405180910390a1600282015415610a5557600b8201546001600160a01b03161561099857604080516101a0810182528354815260018401546001600160a01b03908116602083015260028501549282019290925260038401546060820152600484015460ff90811615156080830152600585015460a08301526006850154831660c0830152600785015460e08301526008850154831661010083015260098501548316610120830152600a8501548316610140830152600b850154928316610160830152600160a01b909204909116151561018082015261099390826120bc565b610a55565b604080516101a0810182528354815260018401546001600160a01b03908116602083015260028501549282019290925260038401546060820152600484015460ff90811615156080830152600585015460a08301526006850154831660c0830152600785015460e08301526008850154831661010083015260098501548316610120830152600a8501548316610140830152600b850154928316610160830152600160a01b9092049091161515610180820152610a559082612378565b505050565b60665460ff1690565b610a6b610a5a565b15610a885760405162461bcd60e51b81526004016103e390612d09565b60656000610a94612054565b6001600160a01b0316815260208101919091526040016000205460ff16610acd5760405162461bcd60e51b81526004016103e390612e7a565b6000609882604051610adf9190612b22565b908152604051908190036020019020600b81015490915060ff600160a01b9091041615610b1e5760405162461bcd60e51b81526004016103e390612ec2565b8054421015610b3f5760405162461bcd60e51b81526004016103e390612e18565b600281015415610b615760405162461bcd60e51b81526004016103e390612fa3565b60048101805460ff191660011790556040518190609890610b83908590612b22565b9081526040519081900360200181208254815560018084015490820180546001600160a01b03199081166001600160a01b03938416179091556002808601549084015560038086015490840155600480860154908401805460ff928316151560ff199091161790556005808701549085015560068087015490850180548416918516919091179055600780870154908501556008808701549085018054841691851691909117905560098087015490850180548416918516919091179055600a8087015490850180548416918516919091179055600b958601805496909401805490921695909216949094178085559154600160a01b9081900490911615150260ff60a01b19909116179091557f40ba53bba6e065ce376c63b248ea0b7c92938a3a42984a83aafb3947ca9a2add90610586908490612bb4565b610cc5610a5a565b15610ce25760405162461bcd60e51b81526004016103e390612d09565b6000609883604051610cf49190612b22565b9081526040805191829003602090810183206101a0840183528054845260018101546001600160a01b039081169285019290925260028101549284019290925260038201546060840152600482015460ff90811615156080850152600583015460a08501526006830154821660c0850152600783015460e08501526008830154821661010085015260098301548216610120850152600a8301548216610140850152600b90920154908116610160840152600160a01b900416158015610180830152909150610dd55760405162461bcd60e51b81526004016103e390612ec2565b8051421115610df65760405162461bcd60e51b81526004016103e390612cd9565b8060600151821015610e1a5760405162461bcd60e51b81526004016103e390612d33565b80604001518211610e3d5760405162461bcd60e51b81526004016103e390612d33565b604081015115610e8a578060400151609a600083602001516001600160a01b03166001600160a01b031681526020019081526020016000206000828254610e849190613050565b90915550505b6101608101516001600160a01b0316156111f4576101208101516040516370a0823160e01b815283916001600160a01b0316906370a0823190610ed1903390600401612b3e565b60206040518083038186803b158015610ee957600080fd5b505afa158015610efd573d6000803e3d6000fd5b505050506040513d601f19601f82011682018060405250810190610f219190612ade565b1015610f3f5760405162461bcd60e51b81526004016103e390612caf565b610120810151604051636eb1769f60e11b81526000916001600160a01b03169063dd62ed3e90610f759033903090600401612b76565b60206040518083038186803b158015610f8d57600080fd5b505afa158015610fa1573d6000803e3d6000fd5b505050506040513d601f19601f82011682018060405250810190610fc59190612ade565b905082811015610fe75760405162461bcd60e51b81526004016103e390612f24565b8161012001516001600160a01b03166323b872dd3330866040518463ffffffff1660e01b815260040161101c93929190612b52565b602060405180830381600087803b15801561103657600080fd5b505af115801561104a573d6000803e3d6000fd5b505050506040513d601f19601f8201168201806040525081019061106e919061291b565b61108a5760405162461bcd60e51b81526004016103e390612d6a565b33602083015260408083018490525182906098906110a9908790612b22565b908152604080516020928190038301812084518155928401516001840180546001600160a01b03199081166001600160a01b039384161790915592850151600285015560608501516003850155608085015160048501805460ff191691151591909117905560a0850151600585015560c0850151600685018054851691831691909117905560e0850151600785015561010085015160088501805485169183169190911790556101208501516009850180548516918316919091179055610140850151600a850180548516918316919091179055610160850151600b9094018054610180909601519590931693169290921760ff60a01b1916600160a01b93151593909302929092179091557f09ebc52e266ac5a74a7023baa944297cebe45e95d491a17e87d3ab92694bac57906111e690869033908790612bc7565b60405180910390a150610a55565b813410156112145760405162461bcd60e51b81526004016103e390612ded565b3360208201526040808201839052518190609890611233908690612b22565b908152604080516020928190038301812084518155928401516001840180546001600160a01b03199081166001600160a01b039384161790915592850151600285015560608501516003850155608085015160048501805460ff191691151591909117905560a0850151600585015560c0850151600685018054851691831691909117905560e0850151600785015561010085015160088501805485169183169190911790556101208501516009850180548516918316919091179055610140850151600a850180548516918316919091179055610160850151600b9094018054610180909601519590931693169290921760ff60a01b1916600160a01b93151593909302929092179091557f09ebc52e266ac5a74a7023baa944297cebe45e95d491a17e87d3ab92694bac579061137090859033908690612bc7565b60405180910390a1505050565b611385612054565b6001600160a01b031661139661197a565b6001600160a01b0316146113bc5760405162461bcd60e51b81526004016103e390612e45565b6033546040516000916001600160a01b0316907f8be0079c531659141344cd1fd0a4f28419497f9722a3daafe3b4186f6b6457e0908390a3603380546001600160a01b0319169055565b600060656000611414612054565b6001600160a01b0316815260208101919091526040016000205460ff16905090565b6000611440610a5a565b1561145d5760405162461bcd60e51b81526004016103e390612d09565b600060988360405161146f9190612b22565b9081526040805191829003602090810183206101a0840183528054845260018101546001600160a01b039081168584015260028201548585015260038201546060860152600482015460ff90811615156080870152600583015460a08701526006830154821660c0870152600783015460e08701526008830154821661010087015260098301548216610120870152600a8301548216610140870152600b90920154908116610160860152600160a01b9004161515610180840152336000908152609a9091522054909150806115575760405162461bcd60e51b81526004016103e390612f5b565b336000818152609a602052604080822091909155610120840151905163a9059cbb60e01b81526001600160a01b039091169163a9059cbb9161159e91908590600401612b90565b602060405180830381600087803b1580156115b857600080fd5b505af11580156115cc573d6000803e3d6000fd5b505050506040513d601f19601f820116820180604052508101906115f0919061291b565b506001949350505050565b611603610a5a565b156116205760405162461bcd60e51b81526004016103e390612d09565b6065600061162c612054565b6001600160a01b0316815260208101919091526040016000205460ff166116655760405162461bcd60e51b81526004016103e390612e7a565b6040516331a9108f60e11b815282906000906001600160a01b03831690636352211e90611696908a90600401613020565b602060405180830381600087803b1580156116b057600080fd5b505af11580156116c4573d6000803e3d6000fd5b505050506040513d601f19601f820116820180604052508101906116e891906128cb565b604080516101a0810182528a8152600060208201819052818301819052606082018a90526080820181905260a082018b90526001600160a01b0380851660c084015260e083018a9052868116610100840152610120830182905288166101408301526101608201819052610180820152905191925090819060989061176e908d90612b22565b908152604080516020928190038301812084518155928401516001840180546001600160a01b03199081166001600160a01b039384161790915592850151600285015560608501516003850155608085015160048501805460ff191691151591909117905560a0850151600585015560c0850151600685018054851691831691909117905560e0850151600785015561010085015160088501805485169183169190911790556101208501516009850180548516918316919091179055610140850151600a850180548516918316919091179055610160850151600b9094018054610180909601519590931693169290921760ff60a01b1916600160a01b93151593909302929092179091558490609d9061188a908d90612b22565b90815260405190819003602001812080546001600160a01b03939093166001600160a01b0319909316929092179091557fc01d05bc626d601679e99eb80cbc27d2e0d6f676e5946b25e47c6cc6d1fff04f906118e9908c908b90612c19565b60405180910390a150505050505050505050565b60656000611909612054565b6001600160a01b0316815260208101919091526040016000205460ff166119425760405162461bcd60e51b81526004016103e390612e7a565b61194a6124b6565b7f8a366fcf0cdff71fc1946279a88cbb2845d8628abc79fc766e3593ff82154d05600160405161060f9190612ba9565b6033546001600160a01b031690565b611991610a5a565b156119ae5760405162461bcd60e51b81526004016103e390612d09565b606560006119ba612054565b6001600160a01b0316815260208101919091526040016000205460ff166119f35760405162461bcd60e51b81526004016103e390612e7a565b6040516331a9108f60e11b815283906000906001600160a01b03831690636352211e90611a24908b90600401613020565b602060405180830381600087803b158015611a3e57600080fd5b505af1158015611a52573d6000803e3d6000fd5b505050506040513d601f19601f82011682018060405250810190611a7691906128cb565b90506000604051806101a001604052808b815260200160006001600160a01b03168152602001600081526020018981526020016000151581526020018a8152602001836001600160a01b03168152602001888152602001846001600160a01b03168152602001866001600160a01b03168152602001876001600160a01b03168152602001866001600160a01b031681526020016000151581525090508060988c604051611b239190612b22565b908152604080516020928190038301812084518155928401516001840180546001600160a01b03199081166001600160a01b039384161790915592850151600285015560608501516003850155608085015160048501805460ff191691151591909117905560a0850151600585015560c0850151600685018054851691831691909117905560e0850151600785015561010085015160088501805485169183169190911790556101208501516009850180548516918316919091179055610140850151600a850180548516918316919091179055610160850151600b9094018054610180909601519590931693169290921760ff60a01b1916600160a01b93151593909302929092179091558490609d90611c3f908e90612b22565b90815260405190819003602001812080546001600160a01b03939093166001600160a01b0319909316929092179091557fc01d05bc626d601679e99eb80cbc27d2e0d6f676e5946b25e47c6cc6d1fff04f90611c9e908d908c90612c19565b60405180910390a15050505050505050505050565b611cbb612054565b6001600160a01b0316611ccc61197a565b6001600160a01b031614611cf25760405162461bcd60e51b81526004016103e390612e45565b6001600160a01b03166000908152606560205260409020805460ff19166001179055565b60656000611d22612054565b6001600160a01b0316815260208101919091526040016000205460ff16611d5b5760405162461bcd60e51b81526004016103e390612e7a565b60408051808201825292835260208084019283526001600160a01b039094166000908152609c909452909220905181559051600190910155565b6000611d9f610a5a565b15611dbc5760405162461bcd60e51b81526004016103e390612d09565b336000908152609b602052604090205480611de95760405162461bcd60e51b81526004016103e390612f5b565b336000818152609a602052604080822082905551829184156108fc02918591818181858888f19350505050158015611e25573d6000803e3d6000fd5b5060019250505090565b611e37612054565b6001600160a01b0316611e4861197a565b6001600160a01b031614611e6e5760405162461bcd60e51b81526004016103e390612e45565b6001600160a01b03166000908152606560205260409020805460ff19169055565b600054610100900460ff1680611ea8575060005460ff16155b611ec45760405162461bcd60e51b81526004016103e390612d9f565b600054610100900460ff16158015611eef576000805460ff1961ff0019909116610100171660011790555b611ef7612511565b611eff612596565b609980546001600160a01b0319166001600160a01b0384161790558015611f2c576000805461ff00191690555b5050565b6099546001600160a01b031681565b611f47612054565b6001600160a01b0316611f5861197a565b6001600160a01b031614611f7e5760405162461bcd60e51b81526004016103e390612e45565b6001600160a01b038116611fa45760405162461bcd60e51b81526004016103e390612c69565b6033546040516001600160a01b038084169216907f8be0079c531659141344cd1fd0a4f28419497f9722a3daafe3b4186f6b6457e090600090a3603380546001600160a01b0319166001600160a01b0392909216919091179055565b60008060008060006098866040516120189190612b22565b90815260405190819003602001902080546006820154600283015460019093015491996001600160a01b03918216995092975016945092505050565b3390565b612060610a5a565b61207c5760405162461bcd60e51b81526004016103e390612c3b565b6066805460ff191690557f5db9ee0a495bf2e6ff9c91a7834c1ba4fdd244a5e8aa4e537bd38aeae4b073aa6120af612054565b60405161060f9190612b3e565b6001600160a01b0381166000908152609c60209081526040808320815180830183528154808252600190920154938101849052918601519193928392839261210392612606565b9250925092508561012001516001600160a01b03166323b872dd308860c00151846040518463ffffffff1660e01b815260040161214293929190612b52565b602060405180830381600087803b15801561215c57600080fd5b505af1158015612170573d6000803e3d6000fd5b505050506040513d601f19601f82011682018060405250810190612194919061291b565b6121b05760405162461bcd60e51b81526004016103e390612d6a565b8561012001516001600160a01b03166323b872dd3087866040518463ffffffff1660e01b81526004016121e593929190612b52565b602060405180830381600087803b1580156121ff57600080fd5b505af1158015612213573d6000803e3d6000fd5b505050506040513d601f19601f82011682018060405250810190612237919061291b565b6122535760405162461bcd60e51b81526004016103e390612d6a565b6101208601516099546040516323b872dd60e01b81526001600160a01b03928316926323b872dd9261228f923092909116908790600401612b52565b602060405180830381600087803b1580156122a957600080fd5b505af11580156122bd573d6000803e3d6000fd5b505050506040513d601f19601f820116820180604052508101906122e1919061291b565b6122fd5760405162461bcd60e51b81526004016103e390612d6a565b8561010001516001600160a01b03166342842e0e8760c0015188602001518960a001516040518463ffffffff1660e01b815260040161233e93929190612b52565b600060405180830381600087803b15801561235857600080fd5b505af115801561236c573d6000803e3d6000fd5b50505050505050505050565b6001600160a01b0381166000908152609c6020908152604080832081518083018352815480825260019092015493810184905291860151919392839283926123bf92612606565b9250925092508560c001516001600160a01b03166108fc829081150290604051600060405180830381858888f19350505050158015612402573d6000803e3d6000fd5b506040516001600160a01b0386169084156108fc029085906000818181858888f19350505050158015612439573d6000803e3d6000fd5b506099546040516001600160a01b039091169083156108fc029084906000818181858888f19350505050158015612474573d6000803e3d6000fd5b508561010001516001600160a01b03166342842e0e8760c0015188602001518960a001516040518463ffffffff1660e01b815260040161233e93929190612b52565b6124be610a5a565b156124db5760405162461bcd60e51b81526004016103e390612d09565b6066805460ff191660011790557f62e78cea01bee320cd4e420270b5ea74000d11b0c9f74754ebdbfc544b05a2586120af612054565b600054610100900460ff168061252a575060005460ff16155b6125465760405162461bcd60e51b81526004016103e390612d9f565b600054610100900460ff16158015612571576000805460ff1961ff0019909116610100171660011790555b612579612652565b6125816126c5565b8015612593576000805461ff00191690555b50565b600054610100900460ff16806125af575060005460ff16155b6125cb5760405162461bcd60e51b81526004016103e390612d9f565b600054610100900460ff161580156125f6576000805460ff1961ff0019909116610100171660011790555b6125fe612652565b612581612791565b600080600080612616878761280f565b90506000612624888761280f565b905060006126328284613050565b90506000612640828b6130a7565b939a9299509297509095505050505050565b600054610100900460ff168061266b575060005460ff16155b6126875760405162461bcd60e51b81526004016103e390612d9f565b600054610100900460ff16158015612581576000805460ff1961ff0019909116610100171660011790558015612593576000805461ff001916905550565b600054610100900460ff16806126de575060005460ff16155b6126fa5760405162461bcd60e51b81526004016103e390612d9f565b600054610100900460ff16158015612725576000805460ff1961ff0019909116610100171660011790555b600061272f612054565b603380546001600160a01b0319166001600160a01b038316908117909155604051919250906000907f8be0079c531659141344cd1fd0a4f28419497f9722a3daafe3b4186f6b6457e0908290a3508015612593576000805461ff001916905550565b600054610100900460ff16806127aa575060005460ff16155b6127c65760405162461bcd60e51b81526004016103e390612d9f565b600054610100900460ff161580156127f1576000805460ff1961ff0019909116610100171660011790555b6066805460ff191690558015612593576000805461ff001916905550565b6000606461281d8385613088565b6128279190613068565b9392505050565b600082601f83011261283e578081fd5b813567ffffffffffffffff8082111561285957612859613104565b604051601f8301601f19168101602001828111828210171561287d5761287d613104565b604052828152848301602001861015612894578384fd5b82602086016020830137918201602001929092529392505050565b6000602082840312156128c0578081fd5b81356128278161311a565b6000602082840312156128dc578081fd5b81516128278161311a565b6000806000606084860312156128fb578182fd5b83356129068161311a565b95602085013595506040909401359392505050565b60006020828403121561292c578081fd5b81518015158114612827578182fd5b60006020828403121561294c578081fd5b813567ffffffffffffffff811115612962578182fd5b61296e8482850161282e565b949350505050565b60008060408385031215612988578182fd5b823567ffffffffffffffff81111561299e578283fd5b6129aa8582860161282e565b95602094909401359450505050565b600080600080600080600060e0888a0312156129d3578283fd5b873567ffffffffffffffff8111156129e9578384fd5b6129f58a828b0161282e565b9750506020880135955060408801359450606088013593506080880135925060a0880135612a228161311a565b915060c0880135612a328161311a565b8091505092959891949750929550565b600080600080600080600080610100898b031215612a5e578081fd5b883567ffffffffffffffff811115612a74578182fd5b612a808b828c0161282e565b9850506020890135965060408901359550606089013594506080890135935060a0890135612aad8161311a565b925060c0890135612abd8161311a565b915060e0890135612acd8161311a565b809150509295985092959890939650565b600060208284031215612aef578081fd5b5051919050565b60008151808452612b0e8160208601602086016130be565b601f01601f19169290920160200192915050565b60008251612b348184602087016130be565b9190910192915050565b6001600160a01b0391909116815260200190565b6001600160a01b039384168152919092166020820152604081019190915260600190565b6001600160a01b0392831681529116602082015260400190565b6001600160a01b03929092168252602082015260400190565b901515815260200190565b6000602082526128276020830184612af6565b600060608252612bda6060830186612af6565b6001600160a01b039490941660208301525060400152919050565b600060408252612c086040830185612af6565b905082151560208301529392505050565b600060408252612c2c6040830185612af6565b90508260208301529392505050565b60208082526014908201527314185d5cd8589b194e881b9bdd081c185d5cd95960621b604082015260600190565b60208082526026908201527f4f776e61626c653a206e6577206f776e657220697320746865207a65726f206160408201526564647265737360d01b606082015260800190565b60208082526010908201526f4e6f7420656e6f7567682066756e647360801b604082015260600190565b602080825260169082015275151a1a5cc8185d58dd1a5bdb881a185cc8195b99195960521b604082015260600190565b60208082526010908201526f14185d5cd8589b194e881c185d5cd95960821b604082015260600190565b60208082526018908201527f546865206269642076616c756520697320696e76616c69640000000000000000604082015260600190565b6020808252818101527f546865207472616e73616374696f6e20776173206e6f7420617070726f766564604082015260600190565b6020808252602e908201527f496e697469616c697a61626c653a20636f6e747261637420697320616c72656160408201526d191e481a5b9a5d1a585b1a5e995960921b606082015260800190565b6020808252601190820152704e6f7420656e6f7567682045746865727360781b604082015260600190565b602080825260139082015272151a19481d1a5b59481cdd1a5b1b0819dbdbd9606a1b604082015260600190565b6020808252818101527f4f776e61626c653a2063616c6c6572206973206e6f7420746865206f776e6572604082015260600190565b60208082526028908201527f4f70657261746f72526f6c653a2063616c6c6572206973206e6f74207468652060408201526737b832b930ba37b960c11b606082015260800190565b602080825260119082015270105d58dd1a5bdb881a5cc81c185d5cd959607a1b604082015260600190565b6020808252601d908201527f5468652061756374696f6e20686173206e6f7420656e64656420796574000000604082015260600190565b60208082526019908201527f436865636b2074686520546f6b656e20616c6c6f77616e636500000000000000604082015260600190565b60208082526028908201527f546865206164647265737320686173206e6f7468696e67206c65667420746f20604082015267776974686472617760c01b606082015260800190565b6020808252601e908201527f49742068617320626964732c20796f752063616e6e6f742063616e63656c0000604082015260600190565b60208082526026908201527f5468652061756374696f6e2068617320616c7265616479206265696e672066696040820152651b9a5cda195960d21b606082015260800190565b90815260200190565b9384526001600160a01b039283166020850152604084019190915216606082015260800190565b60008219821115613063576130636130ee565b500190565b60008261308357634e487b7160e01b81526012600452602481fd5b500490565b60008160001904831182151516156130a2576130a26130ee565b500290565b6000828210156130b9576130b96130ee565b500390565b60005b838110156130d95781810151838201526020016130c1565b838111156130e8576000848401525b50505050565b634e487b7160e01b600052601160045260246000fd5b634e487b7160e01b600052604160045260246000fd5b6001600160a01b038116811461259357600080fdfea2646970667358221220bd31d90c70c98727053f5deec807111a0cae2f6039bbb8ab36be859fda4ee9d664736f6c63430008000033",
  "immutableReferences": {},
  "source": "// SPDX-License-Identifier: GOG\r\npragma solidity ^0.8.0;\r\n\r\nimport \"./IERC721.sol\";\r\nimport \"./OperatorRole.sol\";\r\nimport \"@openzeppelin/contracts-upgradeable/utils/cryptography/ECDSAUpgradeable.sol\";\r\nimport \"@openzeppelin/contracts-upgradeable/security/PausableUpgradeable.sol\";\r\nimport \"@openzeppelin/contracts/token/ERC20/IERC20.sol\";\r\n\r\ncontract GOGAuctionV2 is OperatorRole, PausableUpgradeable {\r\n\r\n    using ECDSAUpgradeable for bytes32;\r\n\r\n    struct Auction {\r\n        // Parameters of the auction. Times are either\r\n        // absolute unix timestamps (seconds since 1970-01-01)\r\n        // or time periods in seconds.\r\n        uint auctionEnd;\r\n\r\n        // Current state of the auction.\r\n        address highestBidder;\r\n        uint highestBid;\r\n\r\n        //Minumin Bid Set by the beneficiary\r\n        uint minimumBid;\r\n\r\n        // Set to true at the end, disallows any change\r\n        bool ended;\r\n\r\n        //Artwork being Auctioned\r\n        uint artwork;\r\n\r\n        //Beneficiary\r\n        address payable beneficiary;\r\n\r\n        //buynow price\r\n        uint buyNowPrice;\r\n\r\n        IERC721 ERC721;\r\n\r\n        IERC20 ERC20;\r\n\r\n        address ERC721ContractAddress;\r\n\r\n        address ERC20ContractAddress;\r\n\r\n        bool paused;\r\n                \r\n    }\r\n\r\n    mapping (string => Auction) Auctions;\r\n\r\n    address payable public gogWallet;\r\n\r\n    // Allowed withdrawals of previous bids\r\n    mapping(address => uint) pendingReturns;\r\n    mapping(address => uint) pendingReturnsEth;\r\n\r\n    struct Royalty {\r\n        uint256 artistPercentage;\r\n        uint256 galleryPercentage;\r\n    }\r\n\r\n    mapping(address => Royalty) Royalties;\r\n    mapping(string => address) Artists;\r\n\r\n    // Events that will be fired on changes.\r\n    event HighestBidIncreased(string auction, address bidder, uint amount);\r\n    event AuctionEnded(address winner, uint amount);\r\n    event BuyNow(address buyer, uint amount);\r\n    event AuctionCancel(string auction);\r\n    event NewAuctionCreated(string auctionId, uint artwork);\r\n    event DidNotFinishYet(uint time, uint auctionTime);\r\n    event NotTheContractOwner(address owner, address sender);\r\n    event ContractIsPaused(bool paused);\r\n    event ContractIsResumed(bool paused);\r\n    event AuctionToogled(string auctionId, bool paused);\r\n\r\n    /// Create a simple auction with `_biddingTime`\r\n    /// seconds bidding time on behalf of the\r\n    /// beneficiary address `_wallet`.\r\n    function initialize (\r\n        address _wallet\r\n    ) public initializer\r\n    {   \r\n        __OperatorRole_init();\r\n        __Pausable_init();\r\n\r\n        gogWallet = payable(_wallet);\r\n    }\r\n\r\n    /**\r\n     * @dev Triggers smart contract to stopped state\r\n     */\r\n    function pause()\r\n        public\r\n        onlyOperator\r\n    {\r\n        _pause();\r\n        emit ContractIsPaused(true);\r\n    }\r\n\r\n    /**\r\n     * @dev Returns smart contract to normal state\r\n     */\r\n    function unpause()\r\n        public\r\n        onlyOperator\r\n    {\r\n        _unpause();\r\n        emit ContractIsResumed(false);\r\n    }\r\n\r\n    function createAuction(string memory _id, uint _biddingTime, uint _artwork, uint _minimumPrice, uint _buynow, address _erc721ContractAddress, address _erc20ContractAddress, address _artist) public whenNotPaused onlyOperator {\r\n\r\n        IERC721 ERC721 = IERC721(_erc721ContractAddress);\r\n        address _owner = ERC721.ownerOf(_artwork);\r\n\r\n        Auction memory auction = Auction({\r\n            auctionEnd: _biddingTime,\r\n            artwork: _artwork,\r\n            beneficiary: payable(_owner),\r\n            highestBidder: address(0),\r\n            highestBid: 0,\r\n            ended: false,\r\n            minimumBid: _minimumPrice,\r\n            buyNowPrice: _buynow,\r\n            ERC721: ERC721,\r\n            ERC20: IERC20(_erc20ContractAddress),\r\n            ERC721ContractAddress: _erc721ContractAddress,\r\n            ERC20ContractAddress: _erc20ContractAddress,\r\n            paused: false\r\n        });\r\n\r\n        Auctions[_id] = auction;\r\n        Artists[_id] = _artist;\r\n\r\n        emit NewAuctionCreated(_id, _artwork);\r\n\r\n    }\r\n\r\n    function createAuctionEth(string memory _id, uint _biddingTime, uint _artwork, uint _minimumPrice, uint _buynow, address _erc721ContractAddress, address _artist) public whenNotPaused onlyOperator {\r\n\r\n        IERC721 ERC721 = IERC721(_erc721ContractAddress);\r\n        address _owner = ERC721.ownerOf(_artwork);\r\n\r\n        Auction memory auction = Auction({\r\n            auctionEnd: _biddingTime,\r\n            artwork: _artwork,\r\n            beneficiary: payable(_owner),\r\n            highestBidder: address(0),\r\n            highestBid: 0,\r\n            ended: false,\r\n            minimumBid: _minimumPrice,\r\n            buyNowPrice: _buynow,\r\n            ERC721: ERC721,\r\n            ERC20: IERC20(address(0)),\r\n            ERC721ContractAddress: _erc721ContractAddress,\r\n            ERC20ContractAddress: address(0),\r\n            paused: false\r\n        });\r\n\r\n        Auctions[_id] = auction;\r\n        Artists[_id] = _artist;\r\n\r\n        emit NewAuctionCreated(_id, _artwork);\r\n\r\n    }\r\n\r\n    /*\r\n    * Royalty[0x232323] - Artist % and Gallery %\r\n    * Royalty[0x345345] - Artist % and Gallery %\r\n    */\r\n    function setRoyalty(address _artist, uint256 _artistPercentage, uint256 _galleryPercentage) public onlyOperator {\r\n        Royalties[_artist] = Royalty({\r\n            artistPercentage: _artistPercentage,\r\n            galleryPercentage: _galleryPercentage\r\n        });\r\n    }\r\n\r\n    /// Bid on an auction with the value sent\r\n    /// together with this transaction.\r\n    /// The value will only be refunded if the\r\n    /// auction is not won.\r\n    function bid(string memory _auction, uint _amount) public whenNotPaused payable {\r\n\r\n        Auction memory auction = Auctions[_auction];\r\n        \r\n        require(!auction.paused, \"Auction is paused\");\r\n        // Revert the call if the bidding\r\n        // period is over.\r\n        require(block.timestamp <= auction.auctionEnd, \"This auction has ended\");\r\n\r\n        // Revert the call value is less than the minimumBid.\r\n        require(_amount >= auction.minimumBid, \"The bid value is invalid\");\r\n\r\n        // If the bid is not higher, send the\r\n        // money back.\r\n        require(_amount > auction.highestBid, \"The bid value is invalid\");\r\n\r\n        if (auction.highestBid != 0) {\r\n            // Sending back the money by simply using\r\n            // highestBidder.send(highestBid) is a security risk\r\n            // because it could execute an untrusted contract.\r\n            // It is always safer to let the recipients\r\n            // withdraw their money themselves.\r\n            pendingReturns[auction.highestBidder] += auction.highestBid;\r\n        }\r\n\r\n        if (auction.ERC20ContractAddress != address(0)) {\r\n\r\n            require(auction.ERC20.balanceOf(msg.sender) >= _amount, \"Not enough funds\");\r\n\r\n            uint256 allowance = auction.ERC20.allowance(msg.sender, address(this));\r\n            require(allowance >= _amount, \"Check the Token allowance\");\r\n            \r\n            require(auction.ERC20.transferFrom(msg.sender, address(this), _amount), \"The transaction was not approved\");\r\n\r\n            auction.highestBidder = msg.sender;\r\n            auction.highestBid = _amount;\r\n            Auctions[_auction] = auction;\r\n            emit HighestBidIncreased(_auction, msg.sender, _amount);\r\n\r\n           \r\n        } else {\r\n            \r\n            require(msg.value >= _amount, \"Not enough Ethers\");\r\n\r\n            auction.highestBidder = msg.sender;\r\n            auction.highestBid = _amount;\r\n            Auctions[_auction] = auction;\r\n            emit HighestBidIncreased(_auction, msg.sender, _amount);\r\n\r\n        }\r\n\r\n       \r\n    }\r\n\r\n    /// Withdraw a bid that was overbid.\r\n    function withdrawERC20(string memory _auction) public whenNotPaused returns (bool) {\r\n        \r\n        Auction memory auction = Auctions[_auction];\r\n\r\n        uint amount = pendingReturns[msg.sender];\r\n        require(amount > 0, \"The address has nothing left to withdraw\");\r\n        \r\n        // It is important to set this to zero because the recipient\r\n        // can call this function again as part of the receiving call\r\n        // before `send` returns.\r\n        pendingReturns[msg.sender] = 0;\r\n        auction.ERC20.transfer(msg.sender, amount);\r\n        \r\n        return true;\r\n    }\r\n\r\n     /// Withdraw a bid that was overbid in ETH.\r\n    function withdrawEth() public whenNotPaused returns (bool) {\r\n        \r\n        uint amount = pendingReturnsEth[msg.sender];\r\n        require(amount > 0, \"The address has nothing left to withdraw\");\r\n        \r\n        // It is important to set this to zero because the recipient\r\n        // can call this function again as part of the receiving call\r\n        // before `send` returns.\r\n        pendingReturns[msg.sender] = 0;\r\n        address payable _sender = payable(msg.sender);\r\n        _sender.transfer(amount);\r\n        \r\n        return true;\r\n    }\r\n\r\n    function auctionCancel(string memory _auction) public whenNotPaused onlyOperator {\r\n\r\n        Auction storage auction = Auctions[_auction];\r\n\r\n        require(!auction.paused, \"Auction is paused\");\r\n\r\n        //Auction Ended\r\n        require(block.timestamp >= auction.auctionEnd, \"The time still good\");\r\n\r\n        //has no maxbid \r\n        require(auction.highestBid == 0, \"It has bids, you cannot cancel\");\r\n\r\n        auction.ended = true;\r\n        Auctions[_auction] = auction;\r\n        emit AuctionCancel(_auction);\r\n\r\n    }\r\n\r\n    /// End the auction and send the highest bid\r\n    /// to the beneficiary and 10% to GOG.\r\n    function auctionEnd(string memory _auction) public whenNotPaused onlyOperator {\r\n\r\n        Auction storage auction = Auctions[_auction];\r\n\r\n        require(!auction.paused, \"Auction is paused\");\r\n\r\n        require (block.timestamp >= auction.auctionEnd, \"The auction has not ended yet\"); // auction has ended\r\n        require(!auction.ended, \"The auction has already being finished\"); // this function has already been called\r\n        \r\n        // End Auction\r\n        auction.ended = true;\r\n        Auctions[_auction] = auction;\r\n        address payable _artist = payable(Artists[_auction]);\r\n\r\n        emit AuctionEnded(auction.highestBidder, auction.highestBid);\r\n        if (auction.highestBid > 0) {\r\n\r\n            if (auction.ERC20ContractAddress != address(0)) {\r\n                _finishAsErc20(auction, _artist);\r\n            } else {\r\n                _finishAsEth(auction, _artist);\r\n            }\r\n\r\n        }\r\n\r\n    }\r\n\r\n    function _finishAsErc20(Auction memory auction, address _artist) internal {\r\n\r\n        Royalty memory royalty = Royalties[_artist];\r\n\r\n        (uint256 artistFee, uint256 galleryFee, uint256 total) = _calculateFees(auction.highestBid, royalty.artistPercentage, royalty.galleryPercentage);\r\n        \r\n        require(auction.ERC20.transferFrom(address(this), auction.beneficiary, total), \"The transaction was not approved\");\r\n        require(auction.ERC20.transferFrom(address(this), _artist, artistFee), \"The transaction was not approved\");\r\n        require(auction.ERC20.transferFrom(address(this), gogWallet, galleryFee), \"The transaction was not approved\");\r\n        \r\n        auction.ERC721.safeTransferFrom(auction.beneficiary, auction.highestBidder, auction.artwork);\r\n\r\n    }\r\n\r\n\r\n    function _finishAsEth(Auction memory auction, address payable _artist) internal {\r\n\r\n        Royalty memory royalty = Royalties[_artist];\r\n\r\n        (uint256 artistFee, uint256 galleryFee, uint256 total) = _calculateFees(auction.highestBid, royalty.artistPercentage, royalty.galleryPercentage);\r\n        \r\n        auction.beneficiary.transfer(total);\r\n        _artist.transfer(artistFee);\r\n        gogWallet.transfer(galleryFee);\r\n\r\n        auction.ERC721.safeTransferFrom(auction.beneficiary, auction.highestBidder, auction.artwork);\r\n\r\n    }\r\n\r\n    function _calculateFees(uint256 _highestBid, uint256 _artistPercentage, uint256 _galleryPercentage) internal pure returns (uint256, uint256, uint256) {\r\n        uint256 artistFee = calculateFee(_highestBid, _artistPercentage);\r\n        uint256 galleryFee = calculateFee(_highestBid, _galleryPercentage);\r\n        uint256 totalFee = artistFee + galleryFee;\r\n        uint256 beneficiaryTotal = _highestBid - totalFee;\r\n\r\n        return (artistFee, galleryFee, beneficiaryTotal);\r\n\r\n    }\r\n\r\n    function toggleAuction(string memory _auction) public onlyOperator {\r\n\r\n        Auction storage auction = Auctions[_auction];\r\n        \r\n        // End Auction\r\n        auction.paused = !auction.paused;\r\n        Auctions[_auction] = auction;\r\n\r\n        emit AuctionToogled(_auction, auction.paused);\r\n        \r\n    }\r\n\r\n    function getAuctionInfo(string memory _auction) public view returns (uint end, address beneficiary, uint maxBid, address maxBidder) {\r\n\r\n        Auction storage auction = Auctions[_auction];\r\n\r\n        end = auction.auctionEnd;\r\n        beneficiary = auction.beneficiary;\r\n        maxBid = auction.highestBid;\r\n        maxBidder = auction.highestBidder;\r\n    }\r\n\r\n    function calculateFee (uint256 _price, uint256 _fee) internal pure returns(uint) {\r\n        return (_price * _fee)/100;\r\n    }\r\n\r\n    function canOperate() public view returns(bool) {\r\n        return operators[_msgSender()];\r\n    }\r\n}",
  "sourcePath": "C:\\Users\\Rogers Sampaio\\Documents\\Code\\GOG-Contracts\\contracts\\ethereum\\GOGAuctionV2.sol",
  "compiler": {
    "name": "solc",
    "version": "0.8.0+commit.c7dfd78e.Emscripten.clang"
  },
  "schemaVersion": "3.4.4",
  "updatedAt": "2022-02-03T10:10:20.752Z",
  "devdoc": {
    "kind": "dev",
    "methods": {
      "owner()": {
        "details": "Returns the address of the current owner."
      },
      "pause()": {
        "details": "Triggers smart contract to stopped state"
      },
      "paused()": {
        "details": "Returns true if the contract is paused, and false otherwise."
      },
      "renounceOwnership()": {
        "details": "Leaves the contract without owner. It will not be possible to call `onlyOwner` functions anymore. Can only be called by the current owner. NOTE: Renouncing ownership will leave the contract without an owner, thereby removing any functionality that is only available to the owner."
      },
      "transferOwnership(address)": {
        "details": "Transfers ownership of the contract to a new account (`newOwner`). Can only be called by the current owner."
      },
      "unpause()": {
        "details": "Returns smart contract to normal state"
      }
    },
    "version": 1
  },
  "userdoc": {
    "kind": "user",
    "methods": {
      "auctionEnd(string)": {
        "notice": "End the auction and send the highest bid to the beneficiary and 10% to GOG."
      },
      "bid(string,uint256)": {
        "notice": "Bid on an auction with the value sent together with this transaction. The value will only be refunded if the auction is not won."
      },
      "initialize(address)": {
        "notice": "Create a simple auction with `_biddingTime` seconds bidding time on behalf of the beneficiary address `_wallet`."
      },
      "withdrawERC20(string)": {
        "notice": "Withdraw a bid that was overbid."
      },
      "withdrawEth()": {
        "notice": "Withdraw a bid that was overbid in ETH."
      }
    },
    "version": 1
  }
}