{
  "contractName": "GOGERC721",
  "abi": [
    {
      "anonymous": false,
      "inputs": [
        {
          "indexed": true,
          "internalType": "address",
          "name": "owner",
          "type": "address"
        },
        {
          "indexed": true,
          "internalType": "address",
          "name": "approved",
          "type": "address"
        },
        {
          "indexed": true,
          "internalType": "uint256",
          "name": "tokenId",
          "type": "uint256"
        }
      ],
      "name": "Approval",
      "type": "event"
    },
    {
      "anonymous": false,
      "inputs": [
        {
          "indexed": true,
          "internalType": "address",
          "name": "owner",
          "type": "address"
        },
        {
          "indexed": true,
          "internalType": "address",
          "name": "operator",
          "type": "address"
        },
        {
          "indexed": false,
          "internalType": "bool",
          "name": "approved",
          "type": "bool"
        }
      ],
      "name": "ApprovalForAll",
      "type": "event"
    },
    {
      "anonymous": false,
      "inputs": [
        {
          "indexed": false,
          "internalType": "uint256",
          "name": "newItemId",
          "type": "uint256"
        },
        {
          "indexed": false,
          "internalType": "address",
          "name": "_owner",
          "type": "address"
        }
      ],
      "name": "NewArtworkMinted",
      "type": "event"
    },
    {
      "anonymous": false,
      "inputs": [
        {
          "indexed": true,
          "internalType": "address",
          "name": "previousOwner",
          "type": "address"
        },
        {
          "indexed": true,
          "internalType": "address",
          "name": "newOwner",
          "type": "address"
        }
      ],
      "name": "OwnershipTransferred",
      "type": "event"
    },
    {
      "anonymous": false,
      "inputs": [
        {
          "indexed": false,
          "internalType": "uint256",
          "name": "tokenId",
          "type": "uint256"
        },
        {
          "indexed": false,
          "internalType": "string",
          "name": "uri",
          "type": "string"
        }
      ],
      "name": "TokenUriUpdated",
      "type": "event"
    },
    {
      "anonymous": false,
      "inputs": [
        {
          "indexed": true,
          "internalType": "address",
          "name": "from",
          "type": "address"
        },
        {
          "indexed": true,
          "internalType": "address",
          "name": "to",
          "type": "address"
        },
        {
          "indexed": true,
          "internalType": "uint256",
          "name": "tokenId",
          "type": "uint256"
        }
      ],
      "name": "Transfer",
      "type": "event"
    },
    {
      "inputs": [
        {
          "internalType": "address",
          "name": "operator",
          "type": "address"
        }
      ],
      "name": "addOperator",
      "outputs": [],
      "stateMutability": "nonpayable",
      "type": "function"
    },
    {
      "inputs": [
        {
          "internalType": "address",
          "name": "to",
          "type": "address"
        },
        {
          "internalType": "uint256",
          "name": "tokenId",
          "type": "uint256"
        }
      ],
      "name": "approve",
      "outputs": [],
      "stateMutability": "nonpayable",
      "type": "function"
    },
    {
      "inputs": [
        {
          "internalType": "address",
          "name": "owner",
          "type": "address"
        }
      ],
      "name": "balanceOf",
      "outputs": [
        {
          "internalType": "uint256",
          "name": "",
          "type": "uint256"
        }
      ],
      "stateMutability": "view",
      "type": "function"
    },
    {
      "inputs": [
        {
          "internalType": "uint256",
          "name": "tokenId",
          "type": "uint256"
        }
      ],
      "name": "getApproved",
      "outputs": [
        {
          "internalType": "address",
          "name": "",
          "type": "address"
        }
      ],
      "stateMutability": "view",
      "type": "function"
    },
    {
      "inputs": [
        {
          "internalType": "address",
          "name": "owner",
          "type": "address"
        },
        {
          "internalType": "address",
          "name": "operator",
          "type": "address"
        }
      ],
      "name": "isApprovedForAll",
      "outputs": [
        {
          "internalType": "bool",
          "name": "",
          "type": "bool"
        }
      ],
      "stateMutability": "view",
      "type": "function"
    },
    {
      "inputs": [],
      "name": "name",
      "outputs": [
        {
          "internalType": "string",
          "name": "",
          "type": "string"
        }
      ],
      "stateMutability": "view",
      "type": "function"
    },
    {
      "inputs": [],
      "name": "owner",
      "outputs": [
        {
          "internalType": "address",
          "name": "",
          "type": "address"
        }
      ],
      "stateMutability": "view",
      "type": "function"
    },
    {
      "inputs": [
        {
          "internalType": "uint256",
          "name": "tokenId",
          "type": "uint256"
        }
      ],
      "name": "ownerOf",
      "outputs": [
        {
          "internalType": "address",
          "name": "",
          "type": "address"
        }
      ],
      "stateMutability": "view",
      "type": "function"
    },
    {
      "inputs": [
        {
          "internalType": "address",
          "name": "operator",
          "type": "address"
        }
      ],
      "name": "removeOperator",
      "outputs": [],
      "stateMutability": "nonpayable",
      "type": "function"
    },
    {
      "inputs": [],
      "name": "renounceOwnership",
      "outputs": [],
      "stateMutability": "nonpayable",
      "type": "function"
    },
    {
      "inputs": [
        {
          "internalType": "address",
          "name": "from",
          "type": "address"
        },
        {
          "internalType": "address",
          "name": "to",
          "type": "address"
        },
        {
          "internalType": "uint256",
          "name": "tokenId",
          "type": "uint256"
        }
      ],
      "name": "safeTransferFrom",
      "outputs": [],
      "stateMutability": "nonpayable",
      "type": "function"
    },
    {
      "inputs": [
        {
          "internalType": "address",
          "name": "from",
          "type": "address"
        },
        {
          "internalType": "address",
          "name": "to",
          "type": "address"
        },
        {
          "internalType": "uint256",
          "name": "tokenId",
          "type": "uint256"
        },
        {
          "internalType": "bytes",
          "name": "_data",
          "type": "bytes"
        }
      ],
      "name": "safeTransferFrom",
      "outputs": [],
      "stateMutability": "nonpayable",
      "type": "function"
    },
    {
      "inputs": [
        {
          "internalType": "address",
          "name": "operator",
          "type": "address"
        },
        {
          "internalType": "bool",
          "name": "approved",
          "type": "bool"
        }
      ],
      "name": "setApprovalForAll",
      "outputs": [],
      "stateMutability": "nonpayable",
      "type": "function"
    },
    {
      "inputs": [
        {
          "internalType": "bytes4",
          "name": "interfaceId",
          "type": "bytes4"
        }
      ],
      "name": "supportsInterface",
      "outputs": [
        {
          "internalType": "bool",
          "name": "",
          "type": "bool"
        }
      ],
      "stateMutability": "view",
      "type": "function"
    },
    {
      "inputs": [],
      "name": "symbol",
      "outputs": [
        {
          "internalType": "string",
          "name": "",
          "type": "string"
        }
      ],
      "stateMutability": "view",
      "type": "function"
    },
    {
      "inputs": [
        {
          "internalType": "uint256",
          "name": "tokenId",
          "type": "uint256"
        }
      ],
      "name": "tokenURI",
      "outputs": [
        {
          "internalType": "string",
          "name": "",
          "type": "string"
        }
      ],
      "stateMutability": "view",
      "type": "function"
    },
    {
      "inputs": [
        {
          "internalType": "address",
          "name": "from",
          "type": "address"
        },
        {
          "internalType": "address",
          "name": "to",
          "type": "address"
        },
        {
          "internalType": "uint256",
          "name": "tokenId",
          "type": "uint256"
        }
      ],
      "name": "transferFrom",
      "outputs": [],
      "stateMutability": "nonpayable",
      "type": "function"
    },
    {
      "inputs": [
        {
          "internalType": "address",
          "name": "newOwner",
          "type": "address"
        }
      ],
      "name": "transferOwnership",
      "outputs": [],
      "stateMutability": "nonpayable",
      "type": "function"
    },
    {
      "inputs": [],
      "name": "initialize",
      "outputs": [],
      "stateMutability": "nonpayable",
      "type": "function"
    },
    {
      "inputs": [
        {
          "internalType": "address",
          "name": "_owner",
          "type": "address"
        },
        {
          "internalType": "string",
          "name": "uri",
          "type": "string"
        }
      ],
      "name": "authorizeAndMintMainArtwork",
      "outputs": [],
      "stateMutability": "nonpayable",
      "type": "function"
    },
    {
      "inputs": [
        {
          "internalType": "uint256",
          "name": "_tokenId",
          "type": "uint256"
        },
        {
          "internalType": "string",
          "name": "uri",
          "type": "string"
        }
      ],
      "name": "updateTokenUri",
      "outputs": [],
      "stateMutability": "nonpayable",
      "type": "function"
    }
  ],
  "bytecode": "0x608060405234801561001057600080fd5b50612110806100206000396000f3fe608060405234801561001057600080fd5b50600436106101375760003560e01c80638da5cb5b116100b8578063b88d4fde1161007c578063b88d4fde14610261578063c87b56dd14610274578063d31af48414610287578063e985e9c51461029a578063ec694fab146102ad578063f2fde38b146102c057610137565b80638da5cb5b1461021857806395d89b41146102205780639870d7fe14610228578063a22cb4651461023b578063ac8a584a1461024e57610137565b806342842e0e116100ff57806342842e0e146101c25780636352211e146101d557806370a08231146101e8578063715018a6146102085780638129fc1c1461021057610137565b806301ffc9a71461013c57806306fdde0314610165578063081812fc1461017a578063095ea7b31461019a57806323b872dd146101af575b600080fd5b61014f61014a36600461188c565b6102d3565b60405161015c91906119b7565b60405180910390f35b61016d61031b565b60405161015c91906119c2565b61018d6101883660046118c4565b6103ad565b60405161015c9190611966565b6101ad6101a8366004611863565b6103f9565b005b6101ad6101bd366004611729565b610491565b6101ad6101d0366004611729565b6104c9565b61018d6101e33660046118c4565b6104e4565b6101fb6101f63660046116dd565b610519565b60405161015c9190611f70565b6101ad61055d565b6101ad6105e6565b61018d6106b1565b61016d6106c0565b6101ad6102363660046116dd565b6106cf565b6101ad6102493660046117dd565b610732565b6101ad61025c3660046116dd565b610800565b6101ad61026f366004611764565b610860565b61016d6102823660046118c4565b61089f565b6101ad6102953660046118dc565b6109c0565b61014f6102a83660046116f7565b610a4c565b6101ad6102bb366004611817565b610a7a565b6101ad6102ce3660046116dd565b610b29565b60006001600160e01b031982166380ac58cd60e01b148061030457506001600160e01b03198216635b5e139f60e01b145b80610313575061031382610bea565b90505b919050565b60606065805461032a90612018565b80601f016020809104026020016040519081016040528092919081815260200182805461035690612018565b80156103a35780601f10610378576101008083540402835291602001916103a3565b820191906000526020600020905b81548152906001019060200180831161038657829003601f168201915b5050505050905090565b60006103b882610c03565b6103dd5760405162461bcd60e51b81526004016103d490611d7d565b60405180910390fd5b506000908152606960205260409020546001600160a01b031690565b6000610404826104e4565b9050806001600160a01b0316836001600160a01b031614156104385760405162461bcd60e51b81526004016103d490611ede565b806001600160a01b031661044a610c20565b6001600160a01b031614806104665750610466816102a8610c20565b6104825760405162461bcd60e51b81526004016103d490611b6b565b61048c8383610c24565b505050565b6104a261049c610c20565b82610c92565b6104be5760405162461bcd60e51b81526004016103d490611f1f565b61048c838383610d0f565b61048c83838360405180602001604052806000815250610860565b6000818152606760205260408120546001600160a01b0316806103135760405162461bcd60e51b81526004016103d490611c12565b60006001600160a01b0382166105415760405162461bcd60e51b81526004016103d490611bc8565b506001600160a01b031660009081526068602052604090205490565b610565610c20565b6001600160a01b03166105766106b1565b6001600160a01b03161461059c5760405162461bcd60e51b81526004016103d490611dc9565b60c9546040516000916001600160a01b0316907f8be0079c531659141344cd1fd0a4f28419497f9722a3daafe3b4186f6b6457e0908390a360c980546001600160a01b0319169055565b600054610100900460ff16806105ff575060005460ff16155b61061b5760405162461bcd60e51b81526004016103d490611ca9565b600054610100900460ff16158015610646576000805460ff1961ff0019909116610100171660011790555b61064e610e3c565b61069c6040518060400160405280601181526020017047616c6c657279206f6e20477265656e6560781b81525060405180604001604052806003815260200162474f4760e81b815250610eac565b80156106ae576000805461ff00191690555b50565b60c9546001600160a01b031690565b60606066805461032a90612018565b6106d7610c20565b6001600160a01b03166106e86106b1565b6001600160a01b03161461070e5760405162461bcd60e51b81526004016103d490611dc9565b6001600160a01b0316600090815260fb60205260409020805460ff19166001179055565b61073a610c20565b6001600160a01b0316826001600160a01b0316141561076b5760405162461bcd60e51b81526004016103d490611ae8565b80606a6000610778610c20565b6001600160a01b03908116825260208083019390935260409182016000908120918716808252919093529120805460ff1916921515929092179091556107bc610c20565b6001600160a01b03167f17307eab39ab6107e8899845ad3d59bd9653f200f220920489ca2b5937696c31836040516107f491906119b7565b60405180910390a35050565b610808610c20565b6001600160a01b03166108196106b1565b6001600160a01b03161461083f5760405162461bcd60e51b81526004016103d490611dc9565b6001600160a01b0316600090815260fb60205260409020805460ff19169055565b61087161086b610c20565b83610c92565b61088d5760405162461bcd60e51b81526004016103d490611f1f565b61089984848484610f3c565b50505050565b60606108aa82610c03565b6108c65760405162461bcd60e51b81526004016103d490611d2c565b600082815260976020526040812080546108df90612018565b80601f016020809104026020016040519081016040528092919081815260200182805461090b90612018565b80156109585780601f1061092d57610100808354040283529160200191610958565b820191906000526020600020905b81548152906001019060200180831161093b57829003601f168201915b505050505090506000610969610f6f565b905080516000141561097d57509050610316565b8151156109af578082604051602001610997929190611937565b60405160208183030381529060405292505050610316565b6109b884610f81565b949350505050565b60fb60006109cc610c20565b6001600160a01b0316815260208101919091526040016000205460ff16610a055760405162461bcd60e51b81526004016103d490611dfe565b610a0f8282611004565b7f652c9498726ae446882619d79306dfe2594d5d5a008eaad0a720ee55ebf8e8b88282604051610a40929190611f90565b60405180910390a15050565b6001600160a01b039182166000908152606a6020908152604080832093909416825291909152205460ff1690565b60fb6000610a86610c20565b6001600160a01b0316815260208101919091526040016000205460ff16610abf5760405162461bcd60e51b81526004016103d490611dfe565b610ac960fc611048565b6000610ad560fc611051565b9050610ae18382611055565b610aeb8183611004565b7fd178cd6836febfd01b6b0de905902bb7780429eddc2ce42384a267697793b0148184604051610b1c929190611f79565b60405180910390a1505050565b610b31610c20565b6001600160a01b0316610b426106b1565b6001600160a01b031614610b685760405162461bcd60e51b81526004016103d490611dc9565b6001600160a01b038116610b8e5760405162461bcd60e51b81526004016103d490611a27565b60c9546040516001600160a01b038084169216907f8be0079c531659141344cd1fd0a4f28419497f9722a3daafe3b4186f6b6457e090600090a360c980546001600160a01b0319166001600160a01b0392909216919091179055565b6001600160e01b031981166301ffc9a760e01b14919050565b6000908152606760205260409020546001600160a01b0316151590565b3390565b600081815260696020526040902080546001600160a01b0319166001600160a01b0384169081179091558190610c59826104e4565b6001600160a01b03167f8c5be1e5ebec7d5bd14f71427d1e84f3dd0314c0f7b2291e5b200ac8c7c3b92560405160405180910390a45050565b6000610c9d82610c03565b610cb95760405162461bcd60e51b81526004016103d490611b1f565b6000610cc4836104e4565b9050806001600160a01b0316846001600160a01b03161480610cff5750836001600160a01b0316610cf4846103ad565b6001600160a01b0316145b806109b857506109b88185610a4c565b826001600160a01b0316610d22826104e4565b6001600160a01b031614610d485760405162461bcd60e51b81526004016103d490611e46565b6001600160a01b038216610d6e5760405162461bcd60e51b81526004016103d490611aa4565b610d7983838361048c565b610d84600082610c24565b6001600160a01b0383166000908152606860205260408120805460019290610dad908490611fd5565b90915550506001600160a01b0382166000908152606860205260408120805460019290610ddb908490611fa9565b909155505060008181526067602052604080822080546001600160a01b0319166001600160a01b0386811691821790925591518493918716917fddf252ad1be2c89b69c2b068fc378daa952ba7f163c4a11628f55a4df523b3ef91a4505050565b600054610100900460ff1680610e55575060005460ff16155b610e715760405162461bcd60e51b81526004016103d490611ca9565b600054610100900460ff16158015610e9c576000805460ff1961ff0019909116610100171660011790555b610ea4611073565b61069c6110e6565b600054610100900460ff1680610ec5575060005460ff16155b610ee15760405162461bcd60e51b81526004016103d490611ca9565b600054610100900460ff16158015610f0c576000805460ff1961ff0019909116610100171660011790555b610f14611073565b610f1c611073565b610f2683836111b2565b801561048c576000805461ff0019169055505050565b610f47848484610d0f565b610f5384848484611250565b6108995760405162461bcd60e51b81526004016103d4906119d5565b60408051602081019091526000815290565b6060610f8c82610c03565b610fa85760405162461bcd60e51b81526004016103d490611e8f565b6000610fb2610f6f565b90506000815111610fd25760405180602001604052806000815250610ffd565b80610fdc8461136b565b604051602001610fed929190611937565b6040516020818303038152906040525b9392505050565b61100d82610c03565b6110295760405162461bcd60e51b81526004016103d490611c5b565b6000828152609760209081526040909120825161048c9284019061159e565b80546001019055565b5490565b61106f828260405180602001604052806000815250611486565b5050565b600054610100900460ff168061108c575060005460ff16155b6110a85760405162461bcd60e51b81526004016103d490611ca9565b600054610100900460ff1615801561069c576000805460ff1961ff00199091166101001716600117905580156106ae576000805461ff001916905550565b600054610100900460ff16806110ff575060005460ff16155b61111b5760405162461bcd60e51b81526004016103d490611ca9565b600054610100900460ff16158015611146576000805460ff1961ff0019909116610100171660011790555b6000611150610c20565b60c980546001600160a01b0319166001600160a01b038316908117909155604051919250906000907f8be0079c531659141344cd1fd0a4f28419497f9722a3daafe3b4186f6b6457e0908290a35080156106ae576000805461ff001916905550565b600054610100900460ff16806111cb575060005460ff16155b6111e75760405162461bcd60e51b81526004016103d490611ca9565b600054610100900460ff16158015611212576000805460ff1961ff0019909116610100171660011790555b825161122590606590602086019061159e565b50815161123990606690602085019061159e565b50801561048c576000805461ff0019169055505050565b6000611264846001600160a01b03166114b9565b1561136057836001600160a01b031663150b7a02611280610c20565b8786866040518563ffffffff1660e01b81526004016112a2949392919061197a565b602060405180830381600087803b1580156112bc57600080fd5b505af19250505080156112ec575060408051601f3d908101601f191682019092526112e9918101906118a8565b60015b611346573d80801561131a576040519150601f19603f3d011682016040523d82523d6000602084013e61131f565b606091505b50805161133e5760405162461bcd60e51b81526004016103d4906119d5565b805181602001fd5b6001600160e01b031916630a85bd0160e11b1490506109b8565b506001949350505050565b60608161139057506040805180820190915260018152600360fc1b6020820152610316565b8160005b81156113ba57806113a481612053565b91506113b39050600a83611fc1565b9150611394565b60008167ffffffffffffffff8111156113e357634e487b7160e01b600052604160045260246000fd5b6040519080825280601f01601f19166020018201604052801561140d576020820181803683370190505b5090505b84156109b857611422600183611fd5565b915061142f600a8661206e565b61143a906030611fa9565b60f81b81838151811061145d57634e487b7160e01b600052603260045260246000fd5b60200101906001600160f81b031916908160001a90535061147f600a86611fc1565b9450611411565b61149083836114bf565b61149d6000848484611250565b61048c5760405162461bcd60e51b81526004016103d4906119d5565b3b151590565b6001600160a01b0382166114e55760405162461bcd60e51b81526004016103d490611cf7565b6114ee81610c03565b1561150b5760405162461bcd60e51b81526004016103d490611a6d565b6115176000838361048c565b6001600160a01b0382166000908152606860205260408120805460019290611540908490611fa9565b909155505060008181526067602052604080822080546001600160a01b0319166001600160a01b03861690811790915590518392907fddf252ad1be2c89b69c2b068fc378daa952ba7f163c4a11628f55a4df523b3ef908290a45050565b8280546115aa90612018565b90600052602060002090601f0160209004810192826115cc5760008555611612565b82601f106115e557805160ff1916838001178555611612565b82800160010185558215611612579182015b828111156116125782518255916020019190600101906115f7565b5061161e929150611622565b5090565b5b8082111561161e5760008155600101611623565b600067ffffffffffffffff80841115611652576116526120ae565b604051601f8501601f191681016020018281118282101715611676576116766120ae565b60405284815291508183850186101561168e57600080fd5b8484602083013760006020868301015250509392505050565b80356001600160a01b038116811461031657600080fd5b600082601f8301126116ce578081fd5b610ffd83833560208501611637565b6000602082840312156116ee578081fd5b610ffd826116a7565b60008060408385031215611709578081fd5b611712836116a7565b9150611720602084016116a7565b90509250929050565b60008060006060848603121561173d578081fd5b611746846116a7565b9250611754602085016116a7565b9150604084013590509250925092565b60008060008060808587031215611779578081fd5b611782856116a7565b9350611790602086016116a7565b925060408501359150606085013567ffffffffffffffff8111156117b2578182fd5b8501601f810187136117c2578182fd5b6117d187823560208401611637565b91505092959194509250565b600080604083850312156117ef578182fd5b6117f8836116a7565b91506020830135801515811461180c578182fd5b809150509250929050565b60008060408385031215611829578182fd5b611832836116a7565b9150602083013567ffffffffffffffff81111561184d578182fd5b611859858286016116be565b9150509250929050565b60008060408385031215611875578182fd5b61187e836116a7565b946020939093013593505050565b60006020828403121561189d578081fd5b8135610ffd816120c4565b6000602082840312156118b9578081fd5b8151610ffd816120c4565b6000602082840312156118d5578081fd5b5035919050565b600080604083850312156118ee578182fd5b82359150602083013567ffffffffffffffff81111561184d578182fd5b60008151808452611923816020860160208601611fec565b601f01601f19169290920160200192915050565b60008351611949818460208801611fec565b83519083019061195d818360208801611fec565b01949350505050565b6001600160a01b0391909116815260200190565b6001600160a01b03858116825284166020820152604081018390526080606082018190526000906119ad9083018461190b565b9695505050505050565b901515815260200190565b600060208252610ffd602083018461190b565b60208082526032908201527f4552433732313a207472616e7366657220746f206e6f6e20455243373231526560408201527131b2b4bb32b91034b6b83632b6b2b73a32b960711b606082015260800190565b60208082526026908201527f4f776e61626c653a206e6577206f776e657220697320746865207a65726f206160408201526564647265737360d01b606082015260800190565b6020808252601c908201527f4552433732313a20746f6b656e20616c7265616479206d696e74656400000000604082015260600190565b60208082526024908201527f4552433732313a207472616e7366657220746f20746865207a65726f206164646040820152637265737360e01b606082015260800190565b60208082526019908201527f4552433732313a20617070726f766520746f2063616c6c657200000000000000604082015260600190565b6020808252602c908201527f4552433732313a206f70657261746f7220717565727920666f72206e6f6e657860408201526b34b9ba32b73a103a37b5b2b760a11b606082015260800190565b60208082526038908201527f4552433732313a20617070726f76652063616c6c6572206973206e6f74206f7760408201527f6e6572206e6f7220617070726f76656420666f7220616c6c0000000000000000606082015260800190565b6020808252602a908201527f4552433732313a2062616c616e636520717565727920666f7220746865207a65604082015269726f206164647265737360b01b606082015260800190565b60208082526029908201527f4552433732313a206f776e657220717565727920666f72206e6f6e657869737460408201526832b73a103a37b5b2b760b91b606082015260800190565b6020808252602e908201527f45524337323155524953746f726167653a2055524920736574206f66206e6f6e60408201526d32bc34b9ba32b73a103a37b5b2b760911b606082015260800190565b6020808252602e908201527f496e697469616c697a61626c653a20636f6e747261637420697320616c72656160408201526d191e481a5b9a5d1a585b1a5e995960921b606082015260800190565b6020808252818101527f4552433732313a206d696e7420746f20746865207a65726f2061646472657373604082015260600190565b60208082526031908201527f45524337323155524953746f726167653a2055524920717565727920666f72206040820152703737b732bc34b9ba32b73a103a37b5b2b760791b606082015260800190565b6020808252602c908201527f4552433732313a20617070726f76656420717565727920666f72206e6f6e657860408201526b34b9ba32b73a103a37b5b2b760a11b606082015260800190565b6020808252818101527f4f776e61626c653a2063616c6c6572206973206e6f7420746865206f776e6572604082015260600190565b60208082526028908201527f4f70657261746f72526f6c653a2063616c6c6572206973206e6f74207468652060408201526737b832b930ba37b960c11b606082015260800190565b60208082526029908201527f4552433732313a207472616e73666572206f6620746f6b656e2074686174206960408201526839903737ba1037bbb760b91b606082015260800190565b6020808252602f908201527f4552433732314d657461646174613a2055524920717565727920666f72206e6f60408201526e3732bc34b9ba32b73a103a37b5b2b760891b606082015260800190565b60208082526021908201527f4552433732313a20617070726f76616c20746f2063757272656e74206f776e656040820152603960f91b606082015260800190565b60208082526031908201527f4552433732313a207472616e736665722063616c6c6572206973206e6f74206f6040820152701ddb995c881b9bdc88185c1c1c9bdd9959607a1b606082015260800190565b90815260200190565b9182526001600160a01b0316602082015260400190565b6000838252604060208301526109b8604083018461190b565b60008219821115611fbc57611fbc612082565b500190565b600082611fd057611fd0612098565b500490565b600082821015611fe757611fe7612082565b500390565b60005b83811015612007578181015183820152602001611fef565b838111156108995750506000910152565b60028104600182168061202c57607f821691505b6020821081141561204d57634e487b7160e01b600052602260045260246000fd5b50919050565b600060001982141561206757612067612082565b5060010190565b60008261207d5761207d612098565b500690565b634e487b7160e01b600052601160045260246000fd5b634e487b7160e01b600052601260045260246000fd5b634e487b7160e01b600052604160045260246000fd5b6001600160e01b0319811681146106ae57600080fdfea26469706673582212209ef17b8546293c90ad451c8f676cce0cecab4f748e2260462a49a55919e388d964736f6c63430008000033",
  "immutableReferences": {},
  "source": "// SPDX-License-Identifier: GOG\npragma solidity ^0.8.0;\n\nimport \"@openzeppelin/contracts-upgradeable/token/ERC721/extensions/ERC721URIStorageUpgradeable.sol\";\nimport \"@openzeppelin/contracts-upgradeable/access/OwnableUpgradeable.sol\";\nimport \"@openzeppelin/contracts-upgradeable/utils/CountersUpgradeable.sol\";\nimport \"./OperatorRole.sol\";\n\n\ncontract GOGERC721 is ERC721URIStorageUpgradeable, OperatorRole {\n\n    using CountersUpgradeable for CountersUpgradeable.Counter;\n    CountersUpgradeable.Counter private _tokenIds;\n\n    event NewArtworkMinted(uint newItemId, address _owner);\n    event TokenUriUpdated(uint tokenId, string uri);\n\n    function initialize() public initializer {\n\n        __OperatorRole_init();\n\n        __ERC721_init(\"Gallery on Greene\", \"GOG\");\n    }\n\n    function authorizeAndMintMainArtwork(address _owner, string memory uri) public onlyOperator {\n        _tokenIds.increment();\n\n        uint256 newItemId = _tokenIds.current();\n        _safeMint(_owner, newItemId);\n        _setTokenURI(newItemId, uri);\n\n        emit NewArtworkMinted(newItemId, _owner);\n    }\n\n    function updateTokenUri(uint _tokenId, string memory uri) public onlyOperator {\n        _setTokenURI(_tokenId, uri);\n\n        emit TokenUriUpdated(_tokenId, uri);\n    }\n\n}",
  "sourcePath": "/Users/rogerssampaio/Sites/GOG-Contracts/contracts/ethereum/GOGERC721.sol",
  "compiler": {
    "name": "solc",
    "version": "0.8.0+commit.c7dfd78e.Emscripten.clang"
  },
  "schemaVersion": "3.4.1",
  "updatedAt": "2021-09-14T22:01:57.176Z",
  "devdoc": {
    "kind": "dev",
    "methods": {
      "approve(address,uint256)": {
        "details": "See {IERC721-approve}."
      },
      "balanceOf(address)": {
        "details": "See {IERC721-balanceOf}."
      },
      "getApproved(uint256)": {
        "details": "See {IERC721-getApproved}."
      },
      "isApprovedForAll(address,address)": {
        "details": "See {IERC721-isApprovedForAll}."
      },
      "name()": {
        "details": "See {IERC721Metadata-name}."
      },
      "owner()": {
        "details": "Returns the address of the current owner."
      },
      "ownerOf(uint256)": {
        "details": "See {IERC721-ownerOf}."
      },
      "renounceOwnership()": {
        "details": "Leaves the contract without owner. It will not be possible to call `onlyOwner` functions anymore. Can only be called by the current owner. NOTE: Renouncing ownership will leave the contract without an owner, thereby removing any functionality that is only available to the owner."
      },
      "safeTransferFrom(address,address,uint256)": {
        "details": "See {IERC721-safeTransferFrom}."
      },
      "safeTransferFrom(address,address,uint256,bytes)": {
        "details": "See {IERC721-safeTransferFrom}."
      },
      "setApprovalForAll(address,bool)": {
        "details": "See {IERC721-setApprovalForAll}."
      },
      "supportsInterface(bytes4)": {
        "details": "See {IERC165-supportsInterface}."
      },
      "symbol()": {
        "details": "See {IERC721Metadata-symbol}."
      },
      "tokenURI(uint256)": {
        "details": "See {IERC721Metadata-tokenURI}."
      },
      "transferFrom(address,address,uint256)": {
        "details": "See {IERC721-transferFrom}."
      },
      "transferOwnership(address)": {
        "details": "Transfers ownership of the contract to a new account (`newOwner`). Can only be called by the current owner."
      }
    },
    "version": 1
  },
  "userdoc": {
    "kind": "user",
    "methods": {},
    "version": 1
  },
  "db": {
    "callBytecode": {
      "id": "0xa8f8745c25128efc9378eec029673eb65b9787d25077d8278bd24ee5c8e3973b"
    },
    "createBytecode": {
      "id": "0xa033d412607b111750343601dba25353568044cb16140bc36c1aede4168570af"
    },
    "contract": {
      "id": "0x4de53cdf7665f145ce19013f7ff618ea47ea77d1bcc5319effa2543fcf0afdd4"
    }
  }
}